:020000040800F2
:10000000B87D0120DD030008395800083150000890
:10001000F5570008BD2700082D6800080000000003
:100020000000000000000000000000001D030008A8
:10003000CF29000800000000790300085160000883
:10004000F7030008F7030008F7030008F7030008A8
:10005000F7030008F7030008F7030008F703000898
:10006000D1290008D7290008DD290008F703000876
:1000700015280008F703000821280008F7030008E6
:10008000F7030008F7030008F7030008F703000868
:10009000F7030008F7030008F7030008E329000846
:1000A000F7030008F7030008F7030008F703000848
:1000B000F7030008F7030008F7030008F703000838
:1000C000F7030008F7030008F7030008F703000828
:1000D000F703000809680008F7030008156800081E
:1000E000F7030008F7030008F7030008F703000808
:1000F000F7030008F7030008F7030008F7030008F8
:10010000F7030008F7030008F7030008F7030008E7
:10011000F7030008F7030008F7030008156100085B
:10012000F70300082D28000839280008F703000805
:10013000F7030008F7030008F7030008F7030008B7
:10014000F7030008F7030008F7030008F7030008A7
:10015000F703000845280008512800082168000816
:10016000F7030008F7030008F7030008F703000887
:10017000F7030008F7030008F70300080000000079
:10018000F7030008F703000800F002F800F0B7F8E2
:100190000AA090E8000C82448344AAF10107DA45E2
:1001A00001D100F0ACF8AFF2090EBAE80F0013F07D
:1001B000010F18BFFB1A43F001031847606E0800D7
:1001C000806E08000A444FF0000C10F8013B13F059
:1001D000070408BF10F8014B1D1108BF10F8015BA0
:1001E000641E05D010F8016B641E01F8016BF9D193
:1001F00013F0080F1EBF10F8014BAD1C0C1B09D1EA
:100200006D1E58BF01F801CBFAD505E014F8016B5B
:1002100001F8016B6D1EF9D59142D6D370470000ED
:100220000023002400250026103A28BF78C1FBD8FF
:10023000520728BF30C148BF0B6070476E2900F0DD
:100240001785702900F05986662932F007816529E3
:1002500032F00481672932F00181612932F0008196
:1002600003681B0A28BF41F08001692900F0C4849B
:10027000642900F0C184752900F0BE846F2900F064
:10028000E685782900F02586E92900F08185E429B2
:1002900000F07E85F52900F07B85EF2900F0E385ED
:1002A000F82900F024860368DB0928BF41F08001AB
:1002B000632901F01B84732901F02084E32901F0F4
:1002C0002B84F32901F03084002070471FB532F0F1
:1002D000C0F800F0BBFF04000020002131F052FD07
:1002E000401C60600020002131F062FDE0600020D1
:1002F000002131F031FD20611FBD10B510BD01F0AE
:10030000A4FC1146FFF7E2FF28F0FEFB01F082FD9E
:1003100003B4FFF7F2FF03BC00F002FC2C4B19689A
:100320000868B0E8F04F80F30988BFF36F8F4FF093
:10033000000080F311887047000000000848006842
:10034000006880F308884FF0000080F3148862B6DC
:1003500061B6BFF34F8FBFF36F8F00DF00BF00BFE9
:1003600008ED00E0DFF80C00016841F47001016065
:10037000704700BF88ED00E0EFF30980BFF36F8F97
:10038000134B1A681EF0100F08BF20ED108A20E9E9
:10039000F04F106009B44FF0500080F31188BFF3A4
:1003A0004F8FBFF36F8F30F0CFFA4FF0000080F324
:1003B000118809BC19680868B0E8F04F1EF0100FEA
:1003C00008BFB0EC108A80F30988BFF36F8F7047C5
:1003D00014000020EFF305807047000009488047B3
:1003E00009480047FEE7FEE7FEE7FEE7FEE7FEE717
:1003F000FEE7FEE7FEE7FEE704480549054A064B2F
:10040000704700000561000889010008B8770120E5
:10041000B87D0120B8790120B879012053EA020C97
:1004200000F069802DE9F04B4FF00006002B1FBF54
:10043000B3FA83F503FA05F424FA05F65E4012BF19
:100440001643B2FA82F502FA05F4C5F120051EBF83
:1004500022FA05FC44EA0C04203556EA044C4FEA23
:10046000144418BF641C4FF000084FF0000990427C
:1004700071EB030C39D3002919BFB1FA81F701FAE6
:1004800007F6B0FA80F700FA07F6C7F120071EBF9B
:1004900020FA07FC46EA0C062037B6FBF4FCA7EB73
:1004A0000507103F07F01F0BCBF120060CFA0BFBE2
:1004B0002CFA06F644BFB3460026202FA4BF5E46A2
:1004C0004FF0000B5BEA060C08BF4FF0010B19EB75
:1004D0000B09ABFB027C48EB0608C01B06FB02CCF9
:1004E0000BFB03CC71EB0C01C1E70B460246414606
:1004F0004846BDE8F08B13B54FF000004FF0000107
:10050000AFF30080BDE81C40704700001CB50C46EE
:10051000064B7B4469460090204600F0C2FB04462F
:100520000020694600F0D0FB20461CBDB307000048
:1005300070B5064600F0FAFA0468054630460A220D
:10054000002100F0A9FD2C6070BD0000014A00F000
:10055000DBBD0000A803002040EA0103024630B5DD
:100560009B0710D14FF0013400E008C208C91D1BE1
:100570009D4315EAC41FF8D013F0FF0102F8011BD8
:100580000DD01B0AF8E711F8013B002B02F8013BE4
:1005900005D011F8013B002B02F8013BF3D130BD2F
:1005A00010B5431C02E010F8011B71B18107FAD1AC
:1005B0004FF0013202C88C1A8C4314EAC211F9D0F0
:1005C000C01A0A0603D0C01E10BDC01A10BD0A040E
:1005D00001D0801E10BD0902FCD0401E10BD40EAB3
:1005E000010370B59B072ED14FF00136042A2AD3A0
:1005F00008C810C99D1B9D43121F15EAC61517D0C8
:10060000D8B2E1B2401A50EA056110D198B2A1B255
:10061000401A50EA05410AD123F07F4024F07F417F
:10062000401A50EA052102D1180EA0EB146070BDEB
:10063000A342DBD018BA21BA884201D9012070BD8B
:100640004FF0FF3070BD0AB9002070BD10F8013BBB
:1006500011F8014B63B1A3420AD1521E08D010F821
:10066000013B11F8014B1BB1A34201D1521EEDD148
:10067000181B70BD032A40F2308010F0030C00F00C
:10068000158011F8013BBCF1020F624498BF11F8CC
:1006900001CB00F8013B38BF11F8013BA2F1040285
:1006A00098BF00F801CB38BF00F8013B11F00303FD
:1006B00000F06780083AC0F0088051F8043B083A1F
:1006C00051F804CBA0E80810F5E7121D5CBF51F803
:1006D000043B40F8043BAFF30080D20724BF11F87D
:1006E000013B11F801CB48BF11F8012B24BF00F8E2
:1006F000013B00F801CB48BF00F8012B7047431ABB
:1007000028BF9A427FF6B6AF032A1044114440F244
:10071000268010F0030F1EBF11F8013D521E00F895
:10072000013D10F0030F7FF4F6AF11F0030300F06A
:100730002085083AC0F00B8051F8043D083A51F882
:1007400004CD40F8043D40F804CDFFF7F3BF121D7F
:100750005CBF51F8043D40F8043DAFF30080D20780
:1007600024BF11F8013D11F801CD48BF11F8012C4B
:1007700024BF00F8013D00F801CD48BF00F8012C6E
:10078000704710B5203AC0F00B80B1E81850203AFD
:10079000A0E81850B1E81850A0E81850BFF4F5AF21
:1007A0005FEA027C24BFB1E81850A0E8185044BFAB
:1007B00018C918C0BDE810405FEA827C24BF51F818
:1007C000043B40F8043B08BF7047D20728BF31F80C
:1007D000023B48BF11F8012B28BF20F8023B48BF5D
:1007E00000F8012B704702F0FF0343EA032242EABC
:1007F000024200F002B84FF000020429C0F012805B
:1008000010F0030C00F01B80CCF1040CBCF1020FC3
:1008100018BF00F8012BA8BF20F8022BA1EB0C0198
:1008200000F00DB85FEAC17C24BF00F8012B00F88E
:10083000012B48BF00F8012B70474FF0000200B5B4
:10084000134694469646203922BFA0E80C50A0E8F3
:100850000C50B1F12001BFF4F7AF090728BFA0E8A1
:100860000C5048BF0CC05DF804EB890028BF40F86D
:10087000042B08BF704748BF20F8022B11F0804FAF
:1008800018BF00F8012B704710B5044610F0030F95
:1008900008BF11F0030F40F015804FF0013E121F0A
:1008A000C0F20E8051F8043BA3EB0E0C2CEA030CB3
:1008B0001CEACE1C08BF40F8043BF0D0A1F10401B3
:1008C00002F10402521E08DB11F8013B002B00F874
:1008D000013BF7D11146FFF78EFF204610BD000007
:1008E0004FF0013C50F8042B51F8043B9A4221D1BF
:1008F000A2EB0C03934313EACC1317D150F8042B4B
:1009000051F8043B9A4215D1A2EB0C03934313EA2E
:10091000CC130BD150F8042B51F8043B9A4209D167
:10092000A2EB0C03934313EACC13DBD04FF000008F
:10093000704700BFD01A01BAB1FA81F101F0180175
:1009400022FA01F0CB40C1F12001DBB2C0B2C01AE3
:100950002CFA01F3D11A914311EAC311E6D1704781
:10096000014900F031BC00001477012010B5036884
:100970001C1404EB21449BB289B2194494FBF2F39A
:1009800002FB134394FBF2F401EB034393FBF2F1FC
:1009900002FB113193FBF2F301E05B1E11440029CD
:1009A000FBDB016003EB044010BDF0B504464FF0E3
:1009B000FF3585B00068049060680290A0680390DD
:1009C000E068019020690090666906F18040B0F10E
:1009D000004F7CD83C22002104A8FFF7C7FF3C222F
:1009E000014602A8FFF7C2FF1822014603A8FFF73D
:1009F000BDFF411E40F2B55201A8FFF7B7FF0C2220
:100A0000074668460021FFF7B1FF414B00EB870026
:100A1000304400267B4411E0511A01910099491C91
:100A20000229009102D00C2908D105E0810705D0E8
:100A30000199491C019101E0401C00960099019A1E
:100A4000595C9142E8DD0099012906D11C2A04D1A4
:100A5000810702D00221CDE90016A0F146018B29C1
:100A60003CD2DDE90061002202E09F5C521C394467
:100A7000B242FADB012E02DD820700D0491E40F2AD
:100A8000B55340F26D16C21700EB927292105A43A2
:100A900000F0030303FB062283070A4400D1521E21
:100AA000039E02EB4203049F06EBC303029EC3EBCB
:100AB000031306EB8303174E33441E149BB2C6EB9D
:100AC0000616C3EB0313B60007EB830300E005E053
:100AD00006EB134666F31F43360C02D0284605B0DA
:100AE000F0BD80C4029E40C4039E40C4019E761C9B
:100AF00044F80C6B009E44E902600720521C92FBF4
:100B0000F0F600FB162084E823001846E7E7000013
:100B1000155F0800A039CEFD704770477047000090
:100B200001491820ABBEFEE72600020000487047CE
:100B30005877012070B5044685690068C10601D563
:100B4000302600E02026C00707D070BDD4E901217F
:100B500030469047206A401C20626D1EF6D570BD5D
:100B600070B5044685690078C00707D170BDD4E927
:100B7000012120209047206A401C20626D1EF6D57E
:100B800070BD09684A0501D540B27047C905FCD55A
:100B900000B2704709684A0501D5C0B27047C9055F
:100BA000FCD580B2704770B50C460546012A05D0C9
:100BB0002878800600D5EA69002302E0012305E0D9
:100BC0005B1C934202D2E05C0028F9D1A869E618C8
:100BD000C01AA861286A184428622846FFF7AAFFAD
:100BE00004E0D5E9012114F8010B9047B442F8D391
:100BF0002846FFF7B5FF70BD2DE9F04106460024F9
:100C000010687529314616A510D0FFF7BAFF0028E5
:100C100002DA404213A507E031688A0701D512A520
:100C200002E0490704D511A5012401E0FFF7B2FF56
:100C300000210A2206F1240709E0B0FBF2FCB0FB18
:100C4000F2F302FB1C00303078541846491C00288F
:100C5000F3D123462A463046BDE8F04100F056BBAA
:100C6000000000002D0000002B000000200000000C
:100C700011680268006A530501D508700AE0D305BF
:100C800001D5088006E0130603D5C217C1E90002AA
:100C900000E008600120704701694A1C0261087881
:100CA000704700B58FB0CDE90131002105910549AC
:100CB0007944CDE903101146684600F029F90FB0D8
:100CC00000BD0000E5FFFFFF0A6802F8010B0A60A3
:100CD000704700002DE9FF5F15468A460446DFF89D
:100CE000AC80F8440027D8E900103E46CDE900105A
:100CF00010E03AF816106A4602A800F068FF411C9E
:100D000007D02178890603D5E269391891420DD8B8
:100D10000744761C2078800602D5E069B84205DDDC
:100D2000AE42E6DB3AF816000028E2D1A069C01B0B
:100D3000A0612046FFF7FEFED8E90010CDE90010C3
:100D4000002017E03AF818106A4602A800F03FFFAA
:100D5000B0F1FF3F81460BD000250DF1080B05E0F7
:100D6000D4E901211BF8050090476D1C4D45F7D3D0
:100D700008F10100B0428046E4DB206A384420627A
:100D80002046FFF7EDFEBDE8FF9F0000065C08006F
:100D90002DE9F0418046D21D22F007020025D2E95C
:100DA0000002F52915A614D0011E72F1000106DA21
:100DB0000023D0EB030063EB020211A608E0D8F891
:100DC00000108B0701D50FA602E0490701D50EA63A
:100DD00001251146002408F1240704E000F03AFA46
:100DE00030323A55641C50EA0102F7D12B463246A4
:100DF00021464046BDE8F04100F088BA00000000FE
:100E00002D0000002B0000002000000030B4002165
:100E100000F1240408E002F00705D208303542EA68
:100E20004372DB086554491C52EA0305F3D1046898
:100E3000002310A2250707D5A40600D421B1C46958
:100E400001230DA2641EC46130BC00F05FBA10B56E
:100E5000044621461068FFF79DFE02462046BDE885
:100E600010400023D2E7D21D22F00701D1E9002370
:100E7000CCE700000000000030000000F0B40D4698
:100E80000188090502D5214C7C4402E01F4C7C44BA
:100E90000E34002100F1240608E002F00F071209C9
:100EA000E75D42EA03721B097754491C52EA0307C3
:100EB000F3D102780023120704D5702D06D009B1B2
:100EC000022311342246F0BC00F020BA0123103472
:100ED000F8E770B504460D4621461068FFF75AFE44
:100EE000024629462046BDE870400023C6E7D21DD1
:100EF00022F00703D3E90023C0E70368126843F038
:100F0000200303600823C3610023B7E7685A080081
:100F10002DE9F05F894604464FF0000ADFF874B10E
:100F2000FB44C0F820A02046E1688847002874D020
:100F3000252806D0D4E901219047206A401C206270
:100F4000F1E700265F462046E168884720280546ED
:100F500007DB312D05D2781910F8200C08B10643B3
:100F6000F1E7B00701D526F00406C4F81CA000275D
:100F7000C4F818A02A2D09D0284605F0B4FC38B3CF
:100F800004EB8708303DC8F8185019E059F8041BE5
:100F9000204604EB87029161E1688847012F0546EE
:100FA00018D1E069002820DA26F020061DE0D8F8E4
:100FB000180000EB800005EB40003038C8F818003E
:100FC0002046E1688847054605F08DFC0028EED1F3
:100FD000012F0AD02E2D08D12046E16888477F1CBA
:100FE0000546022F46F02006C4DBA069002803DA7C
:100FF000404246F00106A061F00701D026F010063D
:101000006C2D0BD0682D09D04C2D39D06A2D35D0E0
:10101000742D35D07A2D33D016E038E0E1682F46B4
:1010200020468847B842054609D16C2F26D04FF498
:101030008060E168064320468847054604E06C2F3F
:101040001AD04FF4807006430DB3A5F14100192862
:1010500002D8203546F400664A46294620462660D6
:101060004E46FFF7EBF880B101280BD0F61D26F0B5
:10107000070000F1080956E74020E4E78020D8E7A0
:101080000020D6E706F104094DE7284652E7206A1A
:10109000BDE8F09FF85908002DE9F04791460F464A
:1010A00080460446002614F8015B2DB100F0C6F816
:1010B0000068405DC007F6D12B2D02D02D2D18D031
:1010C000641E4A463946204600F032FD27B1396891
:1010D000A14201D1C7F800804FF0020471050BD581
:1010E0004042002803DDFFF721FD0460A007BDE8B2
:1010F000F08746F48066E4E70028F8DAFFF716FD8B
:1011000004606FF00040F2E72DE9F04115460E460D
:10111000040002D12C6804B90BA4204600F087FD1E
:101120000444207870B127463146384600F06FFD00
:101130000444207810B1002004F8010B38462C60DC
:10114000BDE8F0810027F9E700000000431A28BF3E
:101150009A427FF616AB104410F0030F11441EBFE5
:1011600011F8013D521E00F8013D10F0030F7FF40D
:10117000F6AF103AC0F00A8010B531E91850103AB5
:1011800020E91850BFF4F9AFBDE81040530724BF61
:1011900031E9081020E9081044BF51F8043D40F837
:1011A000043D12F0030F08BF7047D20728BF31F883
:1011B000023D48BF11F8012C28BF20F8023D48BF6E
:1011C00000F8012C70470000F0B50D46044685B0CC
:1011D00000F03CF8006994E8C0106369016803F20C
:1011E0006C730A188168CDE90363CDE901C7E36830
:1011F00001440093C66A2369406A03FB0613A16990
:1012000001FB0022284603A100F06AF805B0284639
:10121000F0BD0000257320257325336420252E3270
:10122000643A252E32643A252E32642025640A0061
:1012300000487047587701207047000010B500F053
:1012400005F8001D10BD00BF3D0B030000487047AE
:101250007877012030B5B0F10A024FEA900E71F1B3
:1012600000034EEA817EB0EB0E0061EB91014FEA84
:10127000101E4EEA017E10EB0E0041EB11114FEAF9
:10128000102E4EEA016E10EB0E0041EB11214FEAD9
:10129000104E4EEA014E10EB0E0041EB114140188A
:1012A00041F100014FEAD00040EA41704FEAD1011C
:1012B00010EB80054FEA810444EA907444EB01048A
:1012C0006D1944EB0404521BA3414FF0000348BFC7
:1012D0000A3200D530BD401C41F1000130BD000094
:1012E0000FB41CB5084B06AA7B44694600900598CC
:1012F000FFF7D7FC044600206946FFF7E5FC2046CF
:101300001CBC5DF814FB0000DDF9FFFF2DE9F04780
:101310000D4699469246044600F124080168880665
:1013200004D5E06921F01001216000E00120A8420D
:1013300001DD471B00E00027A1697A1902EB0900D3
:10134000081AA0612078C00602D42046FFF7F2FBFD
:10135000002608E0D4E901211AF806009047206A27
:10136000401C761C20624E45F4DB2078C0060AD56E
:101370002046FFF7DFFB06E0D4E90121302090474B
:10138000206A401C2062381EA7F10107F4DC07E048
:10139000D4E9012118F805009047206A401C20621A
:1013A000281EA5F10105F3DC2046FFF7D9FB2078C4
:1013B000000602D50220BDE8F0870120FBE7704758
:1013C0002DE9FF4F0C461E464FF0FF378BB0D2E998
:1013D0000001DDF860800A908A46C1F30A5505B91C
:1013E0003D46002108464FF00000BAF1000F00F41E
:1013F000400005DA00EB80004FF4400101EA5000A4
:101400004FEA9059B9F1010F00DDB9460A9850EA48
:101410004A000ED044F61050A5F2FF3545432F1474
:10142000B8F1000F1ED07542291E1EDDC9F1000261
:101430001CE0B8F1010F4FF0000001D0302103E0B3
:10144000F24305E02154401CB042FBDB3046002251
:10145000002121540B99C1F80880C1E900200FB088
:10146000BDE8F08FBD1B6D1CDEE74A4600DA69421D
:1014700006A800F05DFC06AB93E8070003AB83E829
:10148000070050460A9900F0CEFC8DE80700A0F551
:1014900000501F3800900398002D0ADD42F21F0112
:1014A0004A460844002303A90390684600F037FF2A
:1014B00009E0A0F500504A461F38002303A9039015
:1014C000684600F041FF8DE807000004000C03D0DF
:1014D0004FF0FF30410800E01046B8F1000F03D094
:1014E0000022009215461EE0751E05D4FFF7B2FEDD
:1014F000303262556D1EF9D5B3460122084302D041
:1015000000227F1C04E02078302801D100227F1EB9
:10151000002A099784D01DE0112D07DAFFF79AFE03
:10152000303262556D1C50EA0102F5D1084302D0F9
:101530000098C8B10EE00021681E05E0235C625CE3
:1015400063542254401E491C8142F7DBAB46A81B62
:10155000401E0990002004F80B000B98099AC0F86F
:101560000880C0E9002B7AE711264FF0000857E702
:101570002DE9F04F88460446D21D22F0070191B0B4
:10158000D1E90001CDE90A0105F067F902460B989F
:10159000C00F01D02D2007E02068810701D52B2046
:1015A00002E0202101EAC000032A099001D0072AA5
:1015B00005DB03464146204600F06CFB0BE120783A
:1015C000800601D5E06900E00620B8F1650F81468C
:1015D00006D0B8F1660F18D0B8F1670F70D131E0BE
:1015E0000020B9F1110F009001DB112301E009F196
:1015F00001030AAA01A90CA8FFF7E2FEDDE90C70BD
:10160000002609F10105834647E001204B46009082
:101610004FF000470AAA01A90CA8FFF7D1FEDDE9A7
:101620000DB00C995D46002610B909F101000D18A6
:10163000B9EB050003D4C0F1FF3609F10105A5EBB4
:1016400009002BE0B9F1010F01DA4FF00109002088
:10165000B9F1110F0090484601DD112300E0034667
:101660000AAA01A90CA8FFF7ABFEDDE90C704D46F4
:1016700000268346207800070AD4AB4500DA5D4691
:1016800001A8012D04DD411911F8011C302907D0F2
:101690004F4502DA17F1040F04DA012082460FE009
:1016A0006D1EEEE7002F02DCED1B3E4403E0781CCC
:1016B000A84200DD7D1CB81B00F1010A4FF0004775
:1016C0002078000703D4AA4501DB4FF0FF3A002140
:1016D000B7F1004F0DF143088DF8431024D00220DC
:1016E0002B23002F01DA7F422D230A21021EA0F1B5
:1016F000010000DC5FB197FBF1FC97FBF1F201FB0D
:101700001C7C17460CF1300C08F801CDEEE7A8F16F
:10171000010003702188090501D5452100E06521FC
:10172000A0F1010800F8011C09980FA9A1EB080716
:10173000FF1D00B10120411901EBEA70A169384495
:10174000081A401EA0612078C00602D42046FFF788
:10175000F1F9099828B1D4E901219047206A401C89
:1017600020622078C00622D52046FFF7E3F91EE06C
:10177000002E04DBB34502DD01A8805D00E03020CF
:10178000D4E901219047206A401C2062761CAAF10E
:1017900001005FEA000A0AD1FFF758FDC06801683E
:1017A000405CD4E901219047206A401C2062281E39
:1017B000A5F10105DCDC07E0D4E9012118F8010BF3
:1017C0009047206A401C2062381EA7F10107F3DC15
:1017D0002046FFF7C5F9032011B041E62DE9F04F8F
:1017E00004460D46D21D22F0070089B0D0E90097CB
:1017F0004846394605F031F80246F80F01D02D234E
:1018000007E02068810701D52B2302E0202101EAAF
:10181000C0038DF820300BB1012000E00020032A26
:10182000824601D0072A04DB2946204600F032FA1E
:101830003FE12078800601D40D2500E0E569C7F37B
:101840000A560D2D49DA00214FEA175B08464FF082
:101850000000002F00F4400007DA00EB80004FF496
:10186000400100EBD07001EA60008115012901DD23
:101870004FF0FF3100224FEA850CBCF1180F06D360
:101880001346ACF118004FF08052C24003E04FF411
:10189000801323FA0CF30CF10C0CBCF1200F04D3D1
:1018A000ACF1200C09FA0CF001E007FA0CF0002969
:1018B0004FF0004801DD18B90FE00ED140450CD3C0
:1018C00019EB02095F4121B9404502D19F4329EA42
:1018D0000209BBEB175F00D0761C2088000502D5FB
:1018E0007B48784402E07A487844193808AA3023C3
:1018F00002F80A30037C0AF10101002E0AF1020A03
:1019000053546A4602DC4FF0300101E04FF03101E0
:101910004FF001088DF8001002D0A6F2FF3603E068
:1019200059EA470100D06B4E002D02DC21780907EF
:1019300004D54FF002082E218DF80110C446002175
:101940000BE0C7F303433F01C35C491C6D1E02F863
:101950000830052908F1010801DA002DF1DC002129
:101960000CE000EB1973491C1B786D1E082902F866
:1019700008304FEA091908F1010801DA002DF0DCFE
:1019800021688B0602D516E0A8F10108E04505DDC7
:1019900002EB080313F8013C302BF5D0B8F1000F2F
:1019A00009DD02EB080313F8013C2E2B03D10907D4
:1019B00001D4A8F10108002D05DD3E2102F8081030
:1019C0006D1E08F10108407C002E02F8080008F1A5
:1019D000010804DA2D20764202F8080002E02B20EC
:1019E00002F808000A214FF47A70864208F10108D3
:1019F0000BDB96FBF0F3303302F8083096FBF0F384
:101A000008F1010800FB136601E0642E0CDB642082
:101A100096FBF0F3303302F8083096FBF0F308F150
:101A2000010800FB136601E00A2E06DB96FBF1F0CD
:101A3000303002F8080008F1010896FBF1F001FBD4
:101A40001060303002F80800A16908F1010808EBC5
:101A5000050202EB0A00081AA0612078C00602D431
:101A60002046FFF767F8216A08AE01EB0A00206202
:101A700004E0D4E9012116F8010B9047BAF1010AFC
:101A8000F7D22078C00602D52046FFF753F86E46FD
:101A900009E016F8010B3E280FD0D4E90121904748
:101AA000206A401C2062B8F10108F2D22046FFF7FC
:101AB00057F809B00320BDE8F08F206A284420625F
:101AC00003E0D4E90121302090476D1EEBD3F8E705
:101AD0006650080002FCFFFF10B5436913B1AFF375
:101AE000008001E0FFF75FF8012010BD127800F1DF
:101AF00024010A7000224A700122EDE711684FF0BC
:101B0000FF32E9E710B5436913B1AFF3008001E09C
:101B1000FFF7E0F8012010BD128800F12401828453
:101B20000022C2840122EDE711684FF0FF32E9E79D
:101B30002DE9F05F824615468B4600270AF1010425
:101B4000B9460078302801D09DB113E014F8010B9C
:101B50000127782803D0582801D045B10AE00DB1FB
:101B6000102D07D1002714F8010B102502E00825DD
:101B700000E00A250026B0460EE005FB080005FB44
:101B800006F101271FFA80F801EB1046B6F5803FF9
:101B900000D3B94614F8010B294600F0BBF8002821
:101BA000EBDABBF1000F05D00FB1641E00E0544624
:101BB000CBF80040B9F1000F06D0FEF7B7FF0221C5
:101BC0000160C81EBDE8F09F48EA0640FAE770B51C
:101BD00016460C460546FFF731FB036893F80101F2
:101BE000012806D0FF2C0FD8185D68B101202C7099
:101BF00070BDD3F807013246214603F207130344B0
:101C00002846BDE8704018474FF0FF3070BD30B532
:101C100003461D781DB10A4603E0AC4201D1181AF3
:101C200030BD12F8014B002CF7D15B1CF1E730B549
:101C300003461D783DB10A4612F8014B1CB1AC4277
:101C4000FAD15B1CF5E7181A30BD7546FFF7F0FABC
:101C5000AE4605006946534620F00700854618B099
:101C600020B5FEF7C9FBBDE820404FF000064FF05D
:101C700000074FF000084FF0000B21F00701AC46C1
:101C8000ACE8C009ACE8C009ACE8C009ACE8C009E0
:101C90008D4670472DE9F0411F4604460326016832
:101CA000072A01F4006004DB08B116A505E016A5BB
:101CB00003E008B115A500E015A521F01000206093
:101CC000A069C01EA0610FB1401EA0612046FEF7B2
:101CD00031FF4FB1D4E9012138469047206A401CBA
:101CE0002062C01C206206E0206AFAE7D4E90121E4
:101CF00015F8010B9047761EF8D22046FEF730FF0C
:101D0000BDE8F0814E414E006E616E00494E4600C6
:101D1000696E66003A2800D2303820F02002412A4D
:101D200001D3A2F13700884201D34FF0FF30704752
:101D30002DE9F047814616468AB0354878440DC8EB
:101D40008DE80D0032487844801C03AC0DC884E84F
:101D50000D0041F69B300844372190FBF1F290FBD7
:101D6000F1F5A5F1800501FB12041B3C02D564428C
:101D7000012000E00020DFF898A080460027FA4408
:101D8000AAF1BE0A0EE0E0070AD03246684607EB29
:101D9000470101230AEB810100F0D6FA8DE8070024
:101DA00064107F1C002CEED1194F7F44AE3F19E028
:101DB000E80715D007EB04100DF1180A90E80E00A3
:101DC0008AE80E00C068F04201D1981908903246A6
:101DD000012306A903A800F0B7FA03AB83E80700C4
:101DE0006D10641C002DE3D14FF0010332466946AB
:101DF000B8F1000F03A802D000F091FA01E000F062
:101E0000A3FAC9E90001C9F808200AB0BDE8F087C3
:101E10009C4C080010B50446AFF300802046BDE896
:101E20001040FEF775BA5FEA400C08BF91F0000F52
:101E30004FEA8C234FEAC12243EA51514FEA1C502A
:101E400018BF00F5F0404FEA300018BF41F00041E4
:101E50005FEA6C5C00F02980BCF1FF3F08BF40F0F6
:101E600080407047130C06BF12044FF0100C4FF067
:101E7000000C130E04BF12020CF1080C130F04BF68
:101E800012010CF1040C930F04BF92000CF1020C30
:101E9000D30F04BF52000CF1010C11464FF00002A9
:101EA000A0F11F00A0EB0C00704711F0004F08BF1D
:101EB000704731F000413FF4D5AF0B0C06BF090469
:101EC0004FF0100C4FF0000C0B0E04BF09020CF188
:101ED000080C0B0F04BF09010CF1040C8B0F04BF9D
:101EE00089000CF1020CCB0F04BF49000CF1010C6E
:101EF000CCF12003A0EB0C0022FA03F302FA0CF25F
:101F000041EA030100F10100704720F07F4C80EAB4
:101F1000030023F07F47ACEB070303F57C5300F08D
:101F2000004003F1FF032DE980494FEA154B09B446
:101F30004FEA144325EA0B4E24EA03480FF2042625
:101F400006EB132749083E785FEA320203FB066777
:101F5000C7F5000707FB06F64FEA54374FEAD646A7
:101F600006F1020607FB066CCCF1005C4FEA1C4749
:101F70002CEA074C07FB06F40CFB06F504EB1546B0
:101F80004FEA961634BF00204FF000404FEAD13799
:101F900006FB07FC4FEA1C4C0CFB0BF7D21B03FBA8
:101FA0000CF761EB07010CFB0EF7B0EB074072EB8F
:101FB00017420CFB08F734BFA2EB0742B2EB074213
:101FC00061EB17414FEA0C444FEA910706FB07FC0F
:101FD0004FEA1C4C0CFB0BF7B0EBC74072EB5732CF
:101FE00003FB0CF734BFA2EBC742B2EBC74261EB75
:101FF00057310CFB0EF7B0EBC70072EB57720CFBBE
:1020000008F734BFA2EBC702B2EBC70261EB57710E
:10201000039F4FEA816141EA921104EBCC044FEA3D
:10202000D1374FEA826206FB07FC42EA90124FEA80
:1020300080604FEA1C4C0CFB0BF7D21B03FB0CF728
:1020400061EB07010CFB0EF7B0EB074072EB174298
:102050000CFB08F734BFA2EB0742B2EB074261EB7F
:1020600017414FEA8C554FEA910704EB9C2406FB7D
:1020700007FC4FEA1C4C0CFB0BF7B0EBC74072EBB4
:10208000573203FB0CF734BFA2EBC742B2EBC74297
:1020900061EB57310CFB0EF7B0EBC70072EB5772D8
:1020A0000CFB08F734BFA2EBC702B2EBC70261EB2F
:1020B000577115EB4C254FEA816141EA92114FEAC5
:1020C00082624FEAD13742EA901206FB07FC44F1E4
:1020D00000044FEA80604FEA1C4C0CFB0BF7D21B4C
:1020E00003FB0CF761EB07010CFB0EF7B0EB0740AD
:1020F00072EB17420CFB08F734BFA2EB0742B2EBBE
:10210000074261EB174115EB1C154FEA813141EA9B
:1021100092414FEA823242EA90424FEA80304FEADF
:102120000C7644F1000448EA03434EEA0B484FF0B2
:10213000000EB2EB080C71EB030724BF6246394670
:102140004EEB0E0E4FF0000B0018524149414BEB85
:102150000B0BB2EB080C71EB03077BF1000B24BFF8
:10216000624639464EEB0E0E4FF0000B00185241FE
:1021700049414BEB0B0BB2EB080C71EB03077BF106
:10218000000B24BF624639464EEB0E0E51EA0207A1
:1021900018BF46F0010616EB0E7655F1000254F119
:1021A000000103D5BDE88901BDE80088BDE88901CB
:1021B000BDE80048B619524141EB0101A3F101030A
:1021C000704780807F7E7D7C7B7A797877767675A4
:1021D0007473727171706F6E6E6D6C6C6B6A6A691C
:1021E0006868676666656464636362616160605FB6
:1021F0005F5E5E5D5D5C5C5B5B5A5A59595858572F
:102200005756565555555454535352525251515096
:1022100050504F4F4F4E4E4D4D4D4C4C4C4B4B4BE9
:102220004A4A4A494949484848474747474646462F
:10223000454545444444444343434342424242416A
:102240004141002B9C4630D477002BD01CB54FEA7F
:10225000370703B44FF010004FF01001BAF1000F30
:1022600006D0BCF1000FDCBF40F0080040F00801D0
:102270004FF000000FBCBDE810400BF1010BBBF1AB
:10228000010F08BF5FEA170722BF12F1010211F127
:1022900001014FF0004143F1000300F0004043EA28
:1022A00000007047F9D35708D0E746EA064613F115
:1022B000400F4FEA16461FDD13F1200FDFBF164314
:1022C0000A46002120335B42BED0C3F1200746EA14
:1022D000064602FA07F74FEA164646EA0706C3F132
:1022E000200722FA03F201FA07F721FA03F14FF06F
:1022F000000342EA0702A7E746EA020646EA064664
:102300004FEA164646EA0106BCBF46EA0646360CC8
:102310004FF000034FF000024FF0000194E72DE969
:10232000804C9A46934670B491E8380007C831EA69
:10233000400C48BF34EA430C03D5FFF7E6FDFFF736
:1023400080FFF0BCBDE8008C2DE9804C9A46934696
:1023500070B491E8380007C810F0804F08BF13F040
:10236000804F03D100F005F8FFF76BFFF0BCBDE82C
:10237000008C20F07F4780EA030023F07F4C07EBBE
:102380000C03A3F57C5300F00040A3F1FE0392F090
:10239000000F00F0B38095F0000F00F077802DE97A
:1023A00001494FEA11404FEA144621EA004800FB78
:1023B00006FC24EA064708FB06F607FB08F800FBC4
:1023C00007F718EB06484CEB164C4FEA124B18EB8C
:1023D00007484FEA15464CEB174022EA0B4E0BFB21
:1023E00006FC25EA06470EFB06F607FB0EFE0BFB76
:1023F00007F71EEB064E4CEB164C4FF000061EEB9B
:10240000074E4CEB174B18EB0B0840F1000018EB94
:102410000E0B58EB000840F100008F1A4FF000013E
:102420003CBFC943661B14BFB5EB040C00213CBF85
:10243000C943F61B4FEA17444EEA8E0E27EA0445BD
:102440004FEA1C4704FB07622CEA074C05FB07F721
:102450000CFB05F604FB0CFC16EB074642EB17429F
:1024600016EB0C4642EB1C421BEB060658EB020235
:10247000414146EA9E0601D5BDE80189B61952419F
:1024800041EB0101A3F10103BDE801894FEA1445C5
:102490004FEA114724EA054621EA074C05FB07F4F9
:1024A00006FB07F70CFB06F105FB0CFC11EB0741E3
:1024B00044EB17444FEA124711EB0C4144EB1C4428
:1024C00022EA074C05FB07F206FB07F70CFB06F6B2
:1024D00005FB0CFC16EB074642EB174216EB0C46CD
:1024E00042EB1C456A1854F1000148BF7047B61909
:1024F000524141EB0101A3F10103704795F0000F38
:1025000037D04FEA11424FEA144721EA024624EA43
:10251000074C02FB07F106FB07F70CFB06F402FB76
:102520000CFC14EB074441EB17414FEA154714EB41
:102530000C4441EB1C4125EA074C02FB07F506FB66
:1025400007F70CFB06F602FB0CFC16EB074645EB07
:10255000174516EB0C4645EB1C42121951F10001D0
:1025600048BF7047B619524141EB0101A3F1010385
:1025700070474FEA14454FEA114724EA054621EA1D
:10258000074C05FB07F106FB07F70CFB06F24FF0C3
:10259000000605FB0CFC12EB074241EB174112EB66
:1025A0000C4251EB1C4148BF7047921841EB0101AE
:1025B000A3F1010370470000464910B54A6822F4B0
:1025C00040324A604A6843681A434A6001684A6870
:1025D00022F480724A6001684A68036942EA032271
:1025E0004A6001684A6822F040724A6001684A689D
:1025F00083681A434A6001688A6822F400628A602C
:1026000001688A68C3681A438A60816A6FF07062E1
:10261000D14201688A6822F070628A6001688A6823
:102620000CD0836A1A438A6001688A6822F040529B
:102630008A6001688A68C36A1A4301E022F0405246
:102640008A6001688A6822F002028A6001688A68EA
:10265000037E42EA43028A6090F820100029016854
:102660004A680FD042F400624A6001684A6822F466
:1026700060424A6001684A68174C436A04EB43337E
:102680001A4301E022F400624A600168CA6A22F437
:102690007002CA620168CA6A838B104C04EB035350
:1026A0001A43CA6201688A6822F400728A6001686B
:1026B0008A6890F8303042EA43228A6001688A686A
:1026C00022F480628A6001688A68406942EA802058
:1026D000886010BD0023014000E0FFFF0000F0FF14
:1026E0002DE9FC47DFF8D0900E4605468119D9F850
:1026F000040014464FF00108814202D90520BDE8CC
:10270000FC87E8070AD01346541C284601226D1C9A
:10271000114603F093F80028F1D1761E012003F052
:1027200075FA0028EBD1AD208DF80000EA462FE0C5
:10273000B8F1000F12D05746791C284602F0D8FF96
:1027400099F8150008B1052100E00421207878549B
:102750007A18607850704FF0000806E020788DF805
:102760000100607801218DF8020000231A466846B6
:10277000891C03F037FC070003D0002003F046FA61
:1027800017E004F054F80700F7D1A41CAD1CB61EE6
:10279000022ECDD2002003F039FA0700EDD1012E30
:1027A00007D1012223461146284603F047F80700C7
:1027B000E3D13846A3E70000005E0020FEE70000FA
:1027C00010B50B4C01221146204600F0FCFD012201
:1027D000D103084800F0F7FD01220421204600F053
:1027E000F2FD0021044801F08DFF002010BD000023
:1027F000000C0240000002407805002001B54FF4B3
:10280000FA7301226946024801F0E6FA08BD0000A9
:1028100000040020014800F023BB000058070020FE
:10282000014800F01DBB0000B8070020014800F07F
:1028300017BB000018080020014800F011BB000081
:1028400098060020014800F00BBB0000780800202B
:10285000014800F005BB0000F806002001681823BD
:10286000CAB2103AB2FBF3F2054B6FF30901032A27
:102870009B5CC36500D9091D81650846704700004F
:102880008824030810B5014600208B698A6A4FF03E
:10289000C07453B1B3F5005F15D072B1012A0CD0EA
:1028A000022A0AD0032A09D104E01AB1012A06D06B
:1028B000022A03D1C96AC90100D5012010BDC96A25
:1028C000A142FAD010BD002AF7D0012AF2D0022A84
:1028D000F3D0032AF3D010BD30B50468256825F481
:1028E00080252560046863608368402B036803D0FB
:1028F00099600068C26030BD9A600068C16030BDF8
:1029000070B588B004464FF480356A460E212846DB
:1029100026F008FC9DF80000A52808D10E21684685
:1029200027F00CFA18B17CB30E22694629E04FF467
:1029300000366A460E21304626F0F4FB9DF8000072
:10294000A52805D10E21684627F0F8F90028EAD11C
:102950000F4B0DF1100C0FCB8CE80F000D2104A8CC
:1029600027F0A4F98DF81D0004AA0E21284626F0B0
:10297000E3FB04AA0E21304626F0DEFB24B10E2232
:1029800004A92046FDF776FE08B0002070BD0000C7
:10299000582703081FB5A521017001460E2268467D
:1029A000FDF768FE0D21684627F080F98DF80D00CF
:1029B0006A460E214FF4803026F0BEFB6A460E2197
:1029C0004FF4003026F0B8FB04B0002010BD704773
:1029D000042000F0EFBB082000F0ECBB102000F05A
:1029E000E9BB10B5202000F0E5FBBDE81040402019
:1029F00000F0E0BB72B6FEE778B50024009490F8D2
:102A00003C20012A19D0012280F83C200A680723C3
:102A10000568092A13D9EE680A3A02EB420293408C
:102A20009E43EE600B788A680A3B03EB43039A40AF
:102A30000368DD682A43DA6010E0022078BD2E6961
:102A400002EB420293409E432E610B788A6803EBAF
:102A500043039A4003681D692A431A614A681F2389
:102A6000072A13D205686E6B521E02EB8202934056
:102A70009E436E630B790A885B1E92B203EB83035D
:102A80009A4003685D6B2A435A6327E005680D2A64
:102A900012D22E6BD21F02EB820293409E432E6312
:102AA0000B790A88DB1F92B203EB83039A40036819
:102AB0001D6B2A431A6311E0EE6A0D3A02EB8202A3
:102AC00093409E43EE620B790A880D3B92B203EB72
:102AD00083039A400368DD6A2A43DA62164B05686D
:102AE000144A9D4206D10D68122D03D1556845F454
:102AF0008005556005689D4218D10B68102B01D0E8
:102B0000112B13D1536843F4000353600968102953
:102B10000CD10A490A4A0968B1FBF2F101EB8101C3
:102B2000490000E0491E00910029FBD180F83C409B
:102B3000002078BD0023014000200140100000204B
:102B400040420F000068C06C704770B504004FF041
:102B5000000503D0206C002610B107E0012070BDF5
:102B6000204600F01DF8666484F83C60206CC006C6
:102B700010D4206C20F4885040F0020020642046DD
:102B8000FFF71AFD6664206C20F0020040F001009F
:102B9000206400E0012584F83C60284670BD0000F8
:102BA00010B586B0044614216846FDF746FE11496B
:102BB000206888421CD110480021026842F48072CB
:102BC0000260006800F4807005900B4814380268B9
:102BD00042F001020260006800F00100059004204C
:102BE00000900320CDE901016946044800F0EEFAA7
:102BF00006B010BD002001404438024000000240F1
:102C00002DE9F041044600680D4681684FF0000749
:102C100049050BD58068C00508D5206C40F0200020
:102C2000206484F83C700120BDE8F08100F0D0FB06
:102C3000064613E0681C11D025B100F0C9FB801BCB
:102C4000A8420BD920680068800707D4206C40F0A8
:102C50000400206484F83C700320E5E720680068E5
:102C60008007E7D521686FF012000860206C40F4FF
:102C7000007020642068816811F0405F13D1217ECC
:102C800089B9C16A11F4700F02D0806840050AD476
:102C9000206C20F480702064206CC00403D4206C6D
:102CA00040F0010020640020BEE7000018B50021BC
:102CB000009190F83C20012A07D0012280F83C20A6
:102CC00002689368DB0702D011E0022018BD936808
:102CD00043F0010393602E4A2E4B1268B2FBF3F2CD
:102CE00002EB420200E0521E0092002AFBD1026871
:102CF0009368DB0742D0036C40F20164A34343F4C2
:102D00008073036453685B0505D5036C23F400539B
:102D100043F480530364036CDB0404D5436C23F059
:102D20000603436400E0416480F83C101A496FF0E8
:102D30002203136049680068CA06184906D0884211
:102D400024D1816811F0405F13D01FE08842F8D091
:102D5000134A904203D1D1F80423D206F1D0114A8C
:102D6000904213D1D1F8041301F01F011029E8D3C8
:102D70000CE0816841F08041816007E0016C41F026
:102D800010010164416C41F001014164002018BD53
:102D90001000002040420F000023014000200140AD
:102DA00000210140002201402DE9F0410446876DD9
:102DB00000F00EFB064694F835000025022806D0E8
:102DC0008020606584F834500120BDE8F0812068DF
:102DD000016821F0160101602068416921F080013D
:102DE0004161206C08B9A06C20B12068016821F015
:102DF000080101602068016821F0010101600CE018
:102E000000F0E6FA801B052807D920206065032022
:102E100084F8350084F83450D7E720680068C0078C
:102E2000EED194F85C103F208840B860012084F80F
:102E3000350084F834500020C7E790F83510022997
:102E400003D08021416501207047052180F83510AD
:102E50000068016821F00101016000207047000056
:102E60002DE9F84304464FF00009CDF8009063487F
:102E70004FF41651A56D0068B0FBF1F72E6894F879
:102E80005C10082000FA01F131420FD021680A6875
:102E900052070BD50A6822F004020A6094F85C100D
:102EA0008840A860606D40F00100606594F85C1097
:102EB0004FF0010808FA01F0304208D02168496952
:102EC000090604D5A860606D40F00200606594F8C2
:102ED0005C1004208840304208D0216809688907C6
:102EE00004D5A860606D40F00400606594F85C1043
:102EF00010208840304218D021680968090714D58D
:102F0000A86020680168490304D50068000308D55B
:102F1000A16C07E00168C90503D4016821F008012C
:102F20000160216C09B12046884794F85C1020208C
:102F30008840304231D021680968C9062DD5A86083
:102F400094F8350005282068016806D0490347D564
:102F5000006800031DD4616C1CE021F016010160C3
:102F60002068416921F080014161206C08B9A06CA2
:102F700020B12068016821F00801016094F85C101C
:102F80003F208840A86084F8358084F83490216D13
:102F90001FE0E16B09B120468847606D00282BD007
:102FA000606DC00714D0052084F8350020680168E2
:102FB00021F0010101600098401C0090B84203D844
:102FC00020680068C007F6D184F8358084F8349012
:102FD000E16C002910D001B02046BDE8F04308475D
:102FE0000168C905D5D4016821F01001016084F899
:102FF000358084F83490CCE7BDE8F88310000020D9
:103000002DE9F041044600F0E3F906465CB10220E8
:1030100084F83500002584F834502068016821F0D8
:10302000010101600DE00120BDE8F08100F0D0F960
:10303000801B052805D920206065032084F8350011
:10304000F2E720680068C007F0D1226811682048C4
:103050000140D4E901031843D4E90336334318434C
:1030600063691843A3691843E3691843236A184343
:103070000843616A042903D1D4E90B1319430843B7
:10308000106020684069666A20F0070130460E43F0
:10309000012704280CD1A06A0643E06A40B120460B
:1030A000FFF7F0FB20B14020606584F83570BAE787
:1030B000206846612046FFF7D1FB94F85C203F2151
:1030C00091408160656584F835700020ACE70000B0
:1030D0003F8010F02DE9F0410446866D90F83400F1
:1030E000002501280DD0012084F8340094F83570B3
:1030F0000020012F07D084F8340002252846BDE8BF
:10310000F0810220FBE7022784F8357060652046D5
:10311000FFF7E2FB94F85C103F208840B060206825
:10312000016841F016010160206C20B1206801683F
:1031300041F0080101602068016841F0010101606F
:10314000DCE7000070B5044600F042F90546601C5B
:1031500002D004480078044400F03AF9401BA04231
:10316000FAD370BD0400002010B5082818D008DC80
:1031700001280FD0022810D0042801D111F050FCF2
:1031800010BD10280FD0202810D04028F8D111F001
:103190009FFC10BD11F042FC10BD11F040FC10BDB1
:1031A00011F03FFC10BD11F03DFC10BD11F062FCB0
:1031B00010BD0000044910B50A68024202D0086040
:1031C000FFF7D2FF10BD0000143C01402DE9F84F7D
:1031D000DFF8BCA10022012503264FF00F090AF1F8
:1031E000040BAAF1040E00BF0B6805FA02F4234099
:1031F000A34270D10F7907F00307012F01D0022FEE
:1032000016D187684FEA420806FA08FC27EA0C073D
:10321000D1F80CC00CFA08FC4CEA070CC0F808C046
:103220004768A7430C79C4F3001494403C434460BE
:103230000C79E443A4070AD0C4684FEA420C06FAAA
:103240000CF7BC438F6807FA0CF72743C7600C796B
:1032500004F00304022C12D1D40800EB840CDCF837
:1032600020405707FF0E09FA07F824EA0804D1F8AE
:10327000108008FA07F848EA0408CCF820800468AF
:103280004FEA420C06FA0CF7BC430F7907F003072C
:1032900007FA0CF7274307604C6814F4403F70D0DE
:1032A0003C4C276847F480472760246822F00307D6
:1032B00004F480440094384C07EB040CDCF8084814
:1032C00097074FEA177809FA08F7BC43334FB8421B
:1032D00002D1002724E054E0314FB84201D1012748
:1032E0001EE0304FB84201D1022719E02E4FB842FC
:1032F00001D1032714E02D4FB84201D104270FE07C
:103300002B4FB84201D105270AE02A4FB84201D11C
:10331000062705E0284FB84201D1072700E008271B
:1033200007FA08F72743CCF80878DAF80040574640
:10333000D1F804C09C435FEACC2C00D51C433C6010
:10334000DBF800405F46D1F804C09C435FEA8C2C58
:1033500000D51C433C60DEF800407746D1F804C03D
:103360009C435FEA8C3C00D51C433C60084F083FFF
:103370003C68D1F804C09C435FEACC3C00D51C43B8
:103380003C60521C102AFFF42FAFBDE8F88F0000FC
:10339000083C014044380240003001400000024037
:1033A0000004024000080240000C024000100240ED
:1033B0000014024000180240001C0240006908404E
:1033C00000D0012070470AB1816170470904FBE712
:1033D00001488068704700000400002070B50400B8
:1033E00011D021684CF6CC400860216845F2555058
:1033F0000860D4E9000141602168A0688860FFF797
:10340000E7FF05460DE0012070BD00BFFFF7E0FFBC
:10341000401B312805D92068C068800701D00320EF
:1034200070BD2068C0688007F0D121684AF6AA20E4
:103430000860002070BD00684AF6AA2101600020E3
:10344000704700000248816802781144816070472B
:10345000040000200B4810B5016841F400710160C0
:10346000016841F480610160016841F4807101608C
:10347000032000F09FF8002000F006F800F050F85C
:10348000002010BD003C024030B505461F4887B003
:103490000024016841F020010160006806A900F0E5
:1034A0002000009001A800F031F90498A8B100F0C4
:1034B0004DF940001649174AB0FBF1F11648491E74
:1034C000026040F2E732C0E90324C0E901148461DC
:1034D00000F0AEFE040003D015E000F037F9E9E794
:1034E0000D4800F0E7FE04000DD1372000F034F85D
:1034F000102D07D200222946372000F03BF807485C
:10350000056000E0012407B0204630BD403802408D
:1035100040420F0000140040D8080020080000209E
:103520000C4882B0016841F480410160006800F4F9
:10353000804000900748001F016841F08051016001
:103540000068002200F0805000900F21901E02B011
:1035500000F010B844380240002809DB00F01F02D8
:10356000012191404009800000F1E020C0F80011E5
:1035700070470000F0B40E4B1B680C46C3F30223E7
:10358000C3F10705042D00D90425191D072901D20F
:10359000002300E0DB1E012606FA05F1491E21404A
:1035A00099409E40761E16403143F0BC03F06DB941
:1035B0000CED00E0064900F0070208684FF6FF0333
:1035C000184040EA0220034A104308607047000098
:1035D0000CED00E00000FA052DE9F0470E4605006D
:1035E00065D0DFF81481D8F80000F7B200F00700CA
:1035F000B04207D288F80070D8F8000000F0070049
:10360000B04254D128683D4C810712D5400703D5FC
:10361000206840F4E05020602878000703D5206837
:1036200040F4604020602068A96820F0F000084362
:1036300020602878C0072DD03049686808390128F3
:1036400012D0022813D0032811D009688907002955
:103650002DDA216821F0030101432160FFF7B8FE54
:10366000814641F2883A0EE009688903EFE709686C
:103670008901ECE7FFF7ACFEA0EB0901514502D947
:103680000320BDE8F0872068696800F00C00B0EB0B
:10369000810FEFD1D8F80010404601F00701B14288
:1036A00007D90770006800F00700B04201D0012080
:1036B000E7E72878400705D52068E96820F4E0505E
:1036C000084320602878000706D52068296920F47F
:1036D000604040EAC100206000F058F82168084AC4
:1036E000C1F30311515CC8400649086006480068F0
:1036F000FFF7CAFE0020C4E7003C02400838024041
:103700009024030810000020080000200F2202600F
:103710000C4A136803F003034360136803F0F003DB
:103720008360136803F4E053C36012684FF4E053FE
:1037300003EAD20202610448006800F00700086052
:103740007047000008380240003C02400448054928
:1037500000680968044AC1F38221515CC84070477F
:103760001000002008380240A0240308044805493E
:1037700000680968044AC1F34231515CC84070478F
:103780001000002008380240A0240308154810B596
:10379000006810F00C02144813D01449042A0FD00A
:1037A000082A0ED10F4C241F2268236802F03F0222
:1037B0005B0207D52068C0F38810A0FB010106E07A
:1037C000084610BD2168C1F38811A1FB0001002348
:1037D000FCF724FE2168C1F30141491C4900B0FBFC
:1037E000F1F010BD083802400024F40040787D015B
:1037F0002DE9F84F04006ED02078DFF84C93C00715
:10380000A9F104054AD009F104000168C1F381015E
:10381000012908D00068C0F3810002280AD1D9F834
:103820000000400206D52868800337D5606800286C
:10383000E1D033E06068B0F5803F10D0B0F5A02F44
:10384000286810D020F480302860286820F4802078
:1038500028606068A8B1FFF7BBFD06460DE0286848
:1038600040F48030F4E740F480202860F7E700BFA0
:10387000FFF7AEFD801B642873D828688003F7D556
:103880000CE0FFF7A5FD064605E000BFFFF7A0FD31
:10389000801B6428F0D828688003F7D42078DFF8EC
:1038A000AC8280074FF0000A3ED5A748001D016892
:1038B00011F00C0F08D00068C0F3810002280BD172
:1038C000D9F80000400207D42868800716D5E068C0
:1038D000012800D112E033E1E068B8B10120C8F856
:1038E0000000FFF775FD064605E000BFFFF770FD1D
:1038F000801B0228C0D828688007F7D5286821696E
:1039000020F0F80040EAC10028600DE0C8F800A0EF
:10391000FFF75EFD064604E0FFF75AFD801B022814
:103920001FD828688007F7D42078000722D5864F53
:1039300087486169703771B101210160FFF748FD67
:10394000064604E0FFF744FD801B022809D83868CA
:103950008007F7D50EE0C0F800A0FFF739FD064656
:1039600005E082E0FFF734FD801B02287DD838682F
:103970008007F7D42078400768D5DFF8CCB100275E
:103980000BF13C0BDBF80000C0000BD4DBF800109F
:1039900041F08051CBF80010DBF80000012700F067
:1039A000805000906B4E3068C00510D4306840F4F1
:1039B00080703060FFF70CFD009005E0FFF708FD18
:1039C0000099401A022850D83068C005F6D55E4EDE
:1039D000A0686C3601280FD00528306810D020F080
:1039E00001003060306820F004003060A068B8B199
:1039F000FFF7EEFC00900FE0306840F00100F4E7C4
:103A000040F004003060F7E7FFF7E2FC0099411A4C
:103A100041F28830814266D830688007F4D50EE0E4
:103A2000FFF7D6FC009007E0FFF7D2FC0099411A9F
:103A300041F28830814256D830688007F4D42FB1E3
:103A4000DBF8001021F08051CBF80010A069C8B35A
:103A50003D49091D0968C1F3810102294AD00228A4
:103A6000504607D0C8F8600000E03CE0FFF7B0FC2B
:103A700004463BE04746C8F86000FFF7A9FC06464D
:103A800005E000BFFFF7A4FC801B02282BD82868A4
:103A90008001F7D4D4E907010843A16A2E4A4908F6
:103AA00002EB0141626A41EA8211084394F82C104A
:103AB00040EA0161C9F8001001203866FFF788FC70
:103AC000044606E03EE000BFFFF782FC001B022830
:103AD00009D828688001F7D534E000BFFFF778FCEB
:103AE000001B022802D90320BDE8F88F2868800156
:103AF000F4D427E00128F7D0D9F80000E26900F4F7
:103B0000800191421CD1226A00F03F01914217D1FD
:103B100047F6C071626A0140B1EB821F10D1A26A00
:103B20004FF0FF3300F4403103EB5202B1EB024F90
:103B300006D194F82C1000F07060B0EB016F01D04A
:103B40000120D1E70020CFE70438024000004742BF
:103B5000800E4742007000400000FFFF70B5040077
:103B600009D0606A002540B125616561A56294F8BD
:103B7000510040B10CE0012070BD6068B0F5827F5B
:103B8000F4D0E561F2E784F85050204600F044F8A4
:103B9000022084F851002068016821F04001016092
:103BA000A088218900F4827001F404410843A189AE
:103BB00001F400610843217C01F002010843217DEA
:103BC00001F001010843218B01F400710843217FBA
:103BD00001F03801084394F8201001F080010843F7
:103BE000218D01F40051084321680860A069042177
:103BF00001EA104094F8241001F0100108432168F4
:103C000048602068C16921F40061C16165650120D7
:103C100084F85100002070BD10B586B00446142110
:103C20006846FCF70AFE14492068884221D11348EF
:103C30000021026842F400420260006800F4004083
:103C400005900E481038026842F0040202600068D5
:103C500000F0040005904FF4E05000900220CDE900
:103C60000101032003900620049069460448FFF7F1
:103C7000ADFA06B010BD0000003C004040380240E4
:103C8000000802402DE9F84F044690F851001D4607
:103C900016460F46012838D160684FF00408B0F589
:103CA000827F01D1A06830B3FFF792FB8246002FDC
:103CB00075D0002E73D094F85000012825D04FF015
:103CC000010984F8509084F851804FF00008C4F83E
:103CD0005480A763A687E687C4F83080A4F83480B0
:103CE000A4F83680C4F84080C4F84480A068B0F5D9
:103CF000004F0CD015E084F85180009313460A461B
:103D0000204600F01CF9BDE8F88F0220FBE7206890
:103D1000016821F0400101602068016821F48041C0
:103D2000016020680168490603D4016841F0400140
:103D30000160E068C0B134E020688168C90709D03B
:103D4000007BA16B0870A06B401CA063E08F401E3D
:103D5000E08709E0FFF73CFBA0EB0A00A84202D392
:103D6000681C01D032E085B3E08F0028E4D11BE06D
:103D700020688168C90709D0C068A16B0880A06B62
:103D8000801CA063E08F401EE0870AE0FFF720FB65
:103D9000A0EB0A00A84203D3681C02D016E012E090
:103DA0009DB1E08F0028E3D152462946204601F01C
:103DB0006CFE08B12020606584F8519084F8508032
:103DC000606D00289FD001209DE7FFE784F85190A7
:103DD00084F85080032096E72DE9F84F9846164660
:103DE0008A460446FFF7F4FA814694F85100012808
:103DF0001ED1BAF1000F73D0002E71D094F850008C
:103E0000012815D0012784F85070032084F8510050
:103E100000256565C4F830A0A686E686A563A5875B
:103E2000E58765642564A068B0F5004F03D00CE019
:103E30000220BDE8F88F2068016821F04001016090
:103E40002068016841F480410160206801684906EA
:103E500003D4016841F040010160E068B0F5006FF3
:103E6000606803D048B3012E27D047E008B1012E87
:103E70001FD1206B21680088C86006E02068816837
:103E8000890709D5216B0988C160206B801C2063DC
:103E9000E08E401EE0860CE0FFF79AFAA0EB0901E5
:103EA000414503D3B8F1FF3F03D035E0B8F1000F2F
:103EB00032D0E08E0028E1D123E0206B2168007829
:103EC000087306E02068816889070AD5216B0978A4
:103ED0000173206B401C2063E08E401EE0860DE0E5
:103EE0002BE0FFF775FAA0EB0901414503D3B8F1C8
:103EF000FF3F03D010E0B8F1000F0DD0E08E002896
:103F0000E0D14A464146204601F0EEFD08B12020AE
:103F10006065A06830B109E084F8517084F85050B1
:103F2000032086E72068C1688068009084F851709B
:103F300004F8505F60680028F3D0012079E72DE98C
:103F4000FF4F81B01D46934604464FF001090E9E77
:103F5000FFF73EFA074694F851006168012806D041
:103F6000B1F5827F3CD1A168C9BB042838D1029841
:103F7000002871D0BBF1000FFBD0002DF9D094F8D0
:103F8000500001282CD04FF0010A84F850A094F87A
:103F90005100042802D0052084F851004FF0000899
:103FA000C4F85480C4F838B0E587A5870299216326
:103FB000E586A586C4F84080C4F84480206801687E
:103FC000490603D4016841F040010160E068B0F5A2
:103FD000006F606808D0F0B3012D49D081E0FFE7A1
:103FE000022005B0BDE8F08F08B1012D39D1206B5A
:103FF00021680088C860206B801C2063E08E401E12
:10400000E0862EE02068816889070FD5E18E69B1CE
:10401000B9F1010F0AD1216B0988C160206B801CA6
:104020002063E08E401EE0864FF000092068816822
:10403000C9070CD0E18F51B1C068A16B0880A06B9B
:10404000801CA063E08F401EE0874FF00109FFF75E
:10405000BFF9C01B01E00BE067E0B04201D3701C68
:1040600050D1E08E0028CDD1E08F0028CAD13EE0AB
:10407000206B216800780873206B401C2063E08E61
:10408000401EE0862DE02068816889070FD5E18E0B
:1040900069B1B9F1010F0AD1216B09780173206B65
:1040A000401C2063E08E401EE0864FF0000920682F
:1040B0008168C9070CD0E18F51B1C068A16B08704D
:1040C000A06B401CA063E08F401EE0874FF0010909
:1040D000FFF77EF9C01BB04202D3701C01D011E083
:1040E00086B1E08E0028CED1E08F0028CBD13A46B1
:1040F0003146204601F0F8FC50B12020606584F87C
:10410000508012E084F851A084F85080032068E7C2
:10411000A06818B92068C1688068009084F851A030
:1041200084F85080606D0028F1D0012059E74FF0ED
:10413000E0210428086903D020F0040008617047DA
:1041400040F00400FAE77047704710B590F83C2043
:10415000012A22D0012280F83C20CA688C6822F40F
:10416000407222434C6822F4806222430C6822F49D
:10417000006222430C6922F4805222434C6922F4EB
:1041800000522243C969002322F480420A43016895
:104190004A6480F83C30002010BD022010BD0000B1
:1041A00070B590F83C20012A32D0012480F83C40C0
:1041B000022280F83D2003685A689D6822F070064C
:1041C0000A6832435A60134B02689A4214D0B2F123
:1041D000804F11D0104B9A420ED0104B9A420BD008
:1041E0000F4B9A4208D00F4B9A4205D00E4B9A4281
:1041F00002D00E4B9A4204D1496825F0800319433E
:10420000916080F83D40002180F83C10084670BD68
:10421000022070BD00000140000400400008004082
:10422000000C004000040140004001400018004024
:1042300010B5040003D094F83D0010B107E0012050
:1042400010BD002084F83C00204600F01FF802203A
:1042500084F83D00211D206801F062FF012084F8F0
:10426000460084F83E0084F83F0084F8400084F85B
:10427000410084F8420084F8430084F8440084F844
:10428000450084F83D00002010BD000008B500681E
:104290000649884208D10648016841F400310160AE
:1042A000006800F40030009008BD000000440140A8
:1042B0004438024090F83D10012901D00120704798
:1042C000022180F83D100168CA6842F00102CA600C
:1042D00000681149884214D0B0F1804F11D00F49C5
:1042E00088420ED00E4988420BD00E49884208D031
:1042F0000D49884205D00D49884202D00C498842B8
:1043000004D1816801F00701062903D0016841F05A
:1043100001010160002070470000014000040040DE
:1043200000080040000C0040000401400040014033
:104330000018004070472DE9F04104460068C66847
:1043400005694FF00007A90713D5B10711D5F91E6C
:10435000016101202077206880698007204602D013
:10436000FFF7E8FF04E000F0FFF8204600F0C8F98E
:104370002777680716D5700714D521686FF00400F9
:104380000861022020772068806910F4407F204671
:1043900002D0FFF7CFFF04E000F0E6F8204600F07F
:1043A000AFF92777280715D5300713D521686FF0A7
:1043B00008000861042020772068C0698007204633
:1043C00002D0FFF7B7FF04E000F0CEF8204600F07F
:1043D00097F92777E80616D5F00614D521686FF00F
:1043E00010000861082020772068C06910F4407F21
:1043F000204602D0FFF79EFF04E000F0B5F820460B
:1044000000F07EF92777E80708D0F00706D021688A
:104410006FF001000861204600F016FA280608D562
:10442000300606D521686FF0800008612046FFF74E
:104430008AFE680608D5700606D521686FF0400030
:104440000861204600F00AFAA8060AD5B00608D589
:1044500021686FF0200008612046BDE8F041FFF7B9
:1044600073BEBDE8F0810000F0B587B004461421AA
:104470006846FCF7E2F92468334D002233490223F1
:104480000120334EAC4210D10C6844F010040C6093
:10449000096801F01001059141020091CDE9013256
:1044A000CDE903206946304625E00325B4F1804F6D
:1044B00012D0284F2848BC4221D10C6844F0020495
:1044C0000C6009680093CDE9013201F00201CDE9E9
:1044D0000431039269460EE00C6844F001040C605C
:1044E00009680095CDE9013201F00101CDE904012F
:1044F000039269461948FEF769FE07B0F0BD184FF0
:10450000BC420ED1086840F0100008600868694697
:1045100000F01000059020200090CDE901323046D7
:104520000FE0104EB442E8D10C6844F002040C6075
:10453000096801F002010591B1150091CDE9013240
:104540006946CDE90325D6E7000001403038024036
:10455000001002400004004000040240000002403D
:104560000040014000440140704770B5044690F897
:104570003C0000260D4601280FD0012084F83C00A5
:104580006AB1042A1DD0082A2FD00C2A3FD0012658
:10459000002084F83C00304670BD022070BD2068C9
:1045A00001F038FE2068816941F0080181612068CE
:1045B000816921F004018161206881692A691143C0
:1045C00011E0206801F056FE2068816941F4006125
:1045D00081612068816921F480618161206881693D
:1045E0002A6941EA02218161D2E7206801F078FE60
:1045F0002068C16941F00801C1612068C16921F0EA
:104600000401C1612068C1692A69114311E0206871
:1046100001F09AFE2068C16941F40061C16120681F
:10462000C16921F48061C1612068C1692A6941EAD8
:104630000221C161ACE710B5040003D094F83D003D
:1046400010B107E0012010BD002084F83C00204696
:1046500000F01EF8022084F83D00211D206801F0C2
:104660005FFD012084F8460084F83E0084F83F0096
:1046700084F8400084F8410084F8420084F8430044
:1046800084F8440084F8450084F83D00002010BD03
:1046900008B51749026817488A4205D1016841F0F8
:1046A00001010160006814E01249091FB2F1804F56
:1046B0000AD0114B9A4210D1086840F002000860FD
:1046C000086800F0020006E0086840F00100086099
:1046D000086800F00100009008BD08498A42FBD13B
:1046E000016841F480310160006800F48030F2E735
:1046F00000000140443802400004004000400140F6
:104700007047000010B50446022249B104290ED0BA
:10471000082913D094F84100012816D0012010BDBB
:1047200094F83E000128F9D184F83E200FE094F877
:104730003F000128F2D184F83F2008E094F84000BF
:104740000128EBD184F8402001E084F841200122C7
:10475000206801F051FD16492068164A884201D0B0
:10476000904203D1436C43F4004343642068884281
:1047700013D0B0F1804F10D00F4988420DD00F49AF
:1047800088420AD00E49884207D0904205D00D4990
:10479000884202D00C49884204D1816801F00701A7
:1047A000062903D0016841F001010160002010BD1D
:1047B00000000140000401400004004000080040E7
:1047C000000C0040004001400018004030B5044695
:1047D0000D460068002201F00FFD194B41F2111146
:1047E00020688A10984202D0164B984209D1036A79
:1047F0000B4206D1036A134203D1436C23F40043F6
:1048000043642068036A0B4206D1016A114203D156
:10481000016821F00101016001203DB1042D08D0A3
:10482000082D09D084F84100002030BD84F83E00F6
:10483000FAE784F83F00F7E784F84000F4E7000067
:10484000000001400004014000680349884201D192
:10485000FEF7F8BD7047000000140040704738B5FF
:10486000044690F84200202801D0022038BD61B1F2
:104870005AB10120206300206063204601F028FF28
:104880000028F3D1216B012901D0012038BD216816
:104890000A684968009121680C3151E8002F42F004
:1048A000100241E80023002BF5D138BD18B50346AE
:1048B00090F84200202801D0022018BD61B15AB101
:1048C0000120186300205863184601F049FF0028B2
:1048D000F3D1196B012901D0012018BD19680A68AC
:1048E0004968009119680C3151E8002F42F010021C
:1048F00041E80024002CF5D118BD000010B5134C80
:104900000268131BA2421ED00BDC114BD21814D02C
:10491000B2F5806F14D0B2F5006F01D12BF0F8FC26
:1049200010BDB3F5404F05D0B3F5444FF8D12BF08F
:10493000F5FC10BD2BF078FC10BD2BF095FC10BDE4
:104940002BF0CEFC10BD2BF0E6FC10BD005000405B
:1049500000BCFFBF10B5134B0168CA1A99421ED0A4
:104960000BDC114A891814D0B1F5806F14D0B1F561
:10497000006F01D12BF0CAFC10BDB2F5404F05D03D
:10498000B2F5444FF8D12BF0C7FC10BD2BF04AFC18
:1049900010BD2BF067FC10BD2BF068FC10BD2BF098
:1049A000B8FC10BD0050004000BCFFBF10F8411F14
:1049B0004078084370470000F8B50168044608686D
:1049C000CA684B6910F00F0F4FF0000559D003F083
:1049D000010602F49077374365D0C10705D0D105B1
:1049E00003D5616C41F001016164410705D5D90728
:1049F00003D0616C41F002016164810705D5D907DC
:104A000003D0616C41F004016164010707D502F035
:104A10002001314303D0616C41F008016164616C95
:104A200000293AD0800604D5900602D5204601F030
:104A300067FD20684069616CC0F38010090700D4ED
:104A400060B3204601F027FD20684069400621D56B
:104A50002068143050E8001F21F0400140E80012A7
:104A6000002AF5D1E06BA8B16E490165E06BFEF755
:104A7000E4F9002811D0E06B016D01B0BDE8F04011
:104A8000084783060FD593060DD52046BDE8F840AC
:104A900001F036BD2046FFF75DFFF8BD2046FFF769
:104AA00059FF6564F8BD266B2023012E7DD1C60613
:104AB0007BD5D60679D508684868009048694FF0DC
:104AC0000206400641D5E16B086840680004000C0E
:104AD000E8D0A28D8242E5D9E085C869B0F5807F33
:104AE0002DD020680C3050E8001F21F4807140E880
:104AF0000012002AF5D12068143050E8001F21F080
:104B0000010140E80012002AF5D12068143050E875
:104B1000001F21F0400140E80012002AF5D184F87E
:104B20004230256320680C3050E8001F21F010014E
:104B300040E80012002AF5D1E06BFEF735F9666314
:104B4000A08DE18D401A81B22AE0A08DE18D401A3E
:104B500081B2E08D0028A5D00029A3D022680C32B4
:104B600052E8000F20F4907042E80007002FF5D1C2
:104B70002068143050E8002F22F0010240E800279E
:104B8000002FF5D184F84230256320680C3050E8BE
:104B9000002F22F0100240E80023002BF5D16663BD
:104BA0002046FFF7ABFEF8BDFFE705062BD515063F
:104BB00029D594F841002128F5D1A068B0F5805F8F
:104BC00001D12069B0B1206A411C216221680078BE
:104BD0004860E08C401E0004000CE084E3D12068B3
:104BE000C16821F08001C1602068C16841F04001C6
:104BF000C160D8E7206A0088C0F308004860206AD6
:104C0000801C2062E5E74006CDD55006CBD5CA68AA
:104C1000204622F04002CA6084F8413000F007FAD2
:104C2000C1E700009963000870B5040004D094F84F
:104C30004100002510B106E0012070BD84F840500D
:104C4000204600F023F8242084F841002068C16841
:104C500021F40051C160204601F0B4FC20680169D4
:104C600021F4904101612068416921F02A014161EC
:104C70002068C16841F40051C1606564202084F857
:104C8000410084F842006563002070BD2DE9F04FBB
:104C900087B0044614216846FBF7CFFD9B48DFF838
:104CA00068821438D4F800C0984B022103224027B0
:104CB000002506154FF007094FF0006BC4455BD186
:104CC000D3F800C0AA464CF0100CC3F800C01B6813
:104CD00003F010030593036843F0010303600068C9
:104CE00000F00100059050028DE82300CDE9032972
:104CF00069468748FEF76AFADFF81C828549404614
:104D0000C8F80010C0E901B5C0E90356C8F814504E
:104D1000C8F81850C8F81C50C8F82050D946C8F830
:104D20002450FEF76DF908B1FDF764FE7A4DC4F822
:104D30003C8078486035C8F838407830AF60C5E9C5
:104D40000009C5E903A6C5F814A0C5F818A0C5F860
:104D50001CA0C5F820A02846C5F824A0FEF750F9ED
:104D600008B1FDF747FEA563002205212520AC63AD
:104D7000FEF700FC252062E0DFF8A081C44563D186
:104D8000624BAA461B1FD3F800C04CF4802CC3F81A
:104D900000C01B6803F480230593036843F00203FB
:104DA0000360006800F0020005904FF440608DE859
:104DB0002300CDE9032969465948FEF707FADFF8D1
:104DC0005881584908F1C0084046C8F80010C0E9A9
:104DD00001B5C0E90356C8F81450C8F81850C8F80F
:104DE0001C50C8F82050D946C8F82450FEF708F9DE
:104DF00008B1FDF7FFFD4C4DC4F83C804948C8F8A8
:104E000038403030AF60C5E90009C5E903A6C5F8F0
:104E100014A0C5F818A0C5F81CA0C5F820A0284605
:104E2000C5F824A0FEF7ECF808B1FDF7E3FDA56393
:104E3000002205212720AC63FEF79CFB2720FEF70C
:104E40008BFB07B0BDE8F08FDFF8E080C445F8D1F8
:104E5000D3F800C04CF0200CC3F800C01B6803F06E
:104E600020030593036843F004030360006800F027
:104E700004000590C0208DE823000820CDE9032020
:104E800069462B48FEF7A2F9DFF89C90214909F109
:104E90006009183948464FF0206AC9F80010C0E987
:104EA00001A5C0E90356C9F81450C9F81850C9F84B
:104EB0001C50C9F82050B046C9F82450FEF7A0F89D
:104EC00008B1FDF797FD184EC4F83C90C036C9F8FC
:104ED0003840C6E90275C6E90485B5610D48F5613B
:104EE000356260307562C6E9000A3046FEF788F820
:104EF00008B1FDF77FFDA663002205214720B463BA
:104F0000FEF738FB47209AE7001001404438024082
:104F10000000024040640240980600200048004023
:104F20000004024028600240B8070020001401403D
:104F30000008024010B5134B0168CA1A99421ED0EE
:104F40000BDC114A891814D0B1F5806F14D0B1F57B
:104F5000006F01D12BF0DBF910BDB2F5404F05D049
:104F6000B2F5444FF8D12BF0D8F910BD2BF05BF916
:104F700010BD2BF078F910BD2BF094F910BD2BF07B
:104F8000C9F910BD0050004000BCFFBF70472DE9BB
:104F9000F843044690F84100984616460D462028EE
:104FA00002D00220BDE8F88385B17EB100206064A4
:104FB000212084F84100FEF70BFAA6848146E6849E
:104FC000A0682027B0F5805F02D003E00120E9E768
:104FD000206910B12E4600250EE000260CE080214D
:104FE000204601F0D8FBA8B9C6B116F8010B21681C
:104FF0004860E08C401EE084E08C4B464FF000029D
:10500000CDF800800028EAD14FF04001204601F0A1
:10501000C2FB40B184F841700320C3E735F8020BAE
:10502000C0F30800E3E784F841700020BAE7704756
:10503000FEE700007FB50024154800940194029417
:105040001249039401604FF48031C0E901140461F6
:10505000047680F820400F49C0E90A140125C56193
:10506000C46080F830404561FDF76FFD08B1FDF781
:10507000C1FC0220CDE90005694602940448FDF711
:10508000BBFC002801D0FDF7B5FC7FBD002001402E
:10509000AC0300200100000F214808B5016841F46D
:1050A00080010160016801F480010091016841F410
:1050B000001101600068002200F40010009005213A
:1050C0000C20FEF757FA0C20FEF746FA00220521C5
:1050D0000E20FEF74FFA0E20FEF73EFA00220521C1
:1050E0003920FEF747FA3920FEF736FA002205216B
:1050F0003A20FEF73FFA3A20FEF72EFA0022052169
:105100004520FEF737FA4520FEF726FA0022052152
:105110004620FEF72FFABDE808404620FEF71CBAED
:105120003038024010B5044A0021044824F018FB2E
:105130000349086010BD00006424030845600008AE
:10514000000000202DE9F04F87B014216846FBF7DE
:1051500074FB88480024016841F010010160016877
:1051600001F010010591016841F0800101600168C2
:1051700001F080010591016841F0040101600168BE
:1051800001F004010591016841F00101016001682D
:1051900001F001010591016841F00201016001681F
:1051A00001F002010591016841F008010160006809
:1051B000012200F00800059010216F48FEF703F966
:1051C000002208216D48FEF7FEF8012249F6081179
:1051D0006B48FEF7F8F8002210216948FEF7F3F853
:1051E0004FF4044B002259466348FEF7ECF80122C5
:1051F0004FF2C0016348FEF7E6F801224FF608714E
:105200006148FEF7E0F801224FF440715B48FEF779
:10521000DAF8002207215C48FEF7D5F844F24C008A
:105220004FF48818CDE90008694602945248FDF70A
:10523000CDFF4FF0100902270125CDF8009003970C
:10524000CDE9015469464C48FDF7C0FF0820CDE97F
:105250000005CDE9024769464848FDF7B7FF41F62A
:1052600018100326CDE90005CDE9024669464448F9
:10527000FDF7ACFF4FF0200ACDE900A46946404895
:105280000294FDF7A3FFCDF800B0CDE901546946C3
:1052900039480394FDF79AFF4FF47040CDE90005BB
:1052A000CDE9024669463748FDF790FF4FF6097091
:1052B000CDE90005CDE9024669463348FDF786FF92
:1052C0003002CDE90005CDE9024669462B48FDF7DD
:1052D0007DFFE803CDE90005CDE90247694628488E
:1052E000FDF774FF06200090CDE901546946264879
:1052F0000394FDF76BFFCDF80090CDE90185694679
:105300002148FDF763FF4FF44410CDF800A0CDE92C
:10531000010569461B48FDF759FFC020009001AA0E
:10532000112082E8610069461648FDF74FFF002210
:1053300005210820FEF71EF90820FEF70DF90022CE
:1053400005210920FEF716F90920FEF705F90022CC
:1053500005210A20FEF70EF90A20FEF7FDF80022CB
:1053600005211720FEF706F91720FEF7F5F807B01C
:10537000BDE8F08F303802400010024000080240C3
:105380000000024000040240000C0240094810B531
:10539000074901600021416040F6FF718160FEF71E
:1053A0001DF8002803D0BDE81040FDF723BB10BD59
:1053B00000300040F4030020104810B50E49016091
:1053C0004FF482714160002102228160C0E9031222
:1053D000012242615202C0E90621016241628162FA
:1053E0000A21C162FEF7BAFB002803D0BDE81040D5
:1053F000FDF700BB10BD0000003C00400004002091
:1054000010B588B01C216846FBF717FA14481349F9
:10541000002401604721C0E901146321C0E903149D
:105420008461FEF705FF08B1FDF7E4FA0C48FFF7C9
:1054300002F908B1FDF7DEFA6020CDE9000402941C
:105440000022694606480494FFF78FF808B1FDF77B
:10545000D1FA0348FFF708F808B010BD0044014036
:105460007805002010B592B000240F941C2108A8E4
:105470001094FBF7E2F920216846FBF7DEF920489B
:105480001E4901604721C0E901146321C0E90314EA
:1054900044618461FFF7CFF808B1FDF7ABFA0F94D0
:1054A0000FA917481094FEF77BFE08B1FDF7A2FA8A
:1054B0006020CDE908040A940B940C940D9400220A
:1054C00008A90F480E94FFF750F808B1FDF792FABB
:1054D00000944FF40050CDE90440029401940394E9
:1054E000694607480794FEF730FE08B1FDF782FAD7
:1054F0000348FEF7B9FF12B010BD000000000140E4
:105500005804002010B58AB0002407941C21684676
:105510000894FBF792F919484FF080410160A721E8
:10552000C0E901146321C0E903148461FFF783F823
:1055300008B1FDF75FFA079407A910480894FEF731
:105540002FFE08B1FDF756FA6020CDE90004029461
:105550000022694609480494FFF707F808B1FDF7EF
:1055600049FA042269460548FEF7FFFF08B1FDF736
:1055700041FA0248FEF778FF0AB010BDA0040020EF
:1055800010B58AB0002407941C2168460894FBF7E4
:1055900054F91648144901602921C0E90114632116
:1055A000C0E903148461FFF746F808B1FDF722FA59
:1055B000079407A90D480894FEF7F2FD08B1FDF71E
:1055C00019FA6020CDE9000402940C2269460748CC
:1055D0000494FEF7CAFF08B1FDF70CFA0348FEF782
:1055E00043FF0AB010BD000000040040E8040020A2
:1055F00010B588B01C216846FBF71FF91148104907
:105600000024C0E900144FF6FF71C0E902410461B3
:105610008461FFF710F808B1FDF7ECF96020CDE9DF
:10562000000402940022694606480494FEF79DFF98
:1056300008B1FDF7DFF90348FEF716FF08B010BD0B
:1056400000400140300500200C4810B50A490160B7
:105650004FF4E1314160002181600C22C160C0E95A
:1056600004128161C161FFF7DFFA002803D0BDE8B1
:105670001040FDF7BFB910BD00100140C00500206B
:105680000C4810B50A4901604FF4165141600021E1
:1056900081600C22C160C0E904128161C161FFF721
:1056A000C3FA002803D0BDE81040FDF7A3B910BD30
:1056B00000480040080600200C4810B50A49016067
:1056C0004FF4E1314160002181600C22C160C0E9EA
:1056D00004128161C161FFF7A7FA002803D0BDE879
:1056E0001040FDF787B910BD00140140500600209E
:1056F000094A10B5527D0AB1042300E003230022B9
:105700009C1AE400083C20FA04F48C54521CD2B2D7
:105710009A42F5D3002010BD005E002070B504460B
:105720000E4601251822001DFBF72BF801202070E2
:10573000A078012804D13146204600F085FA0546BC
:10574000284670BD0C3080E80E0000207047816054
:1057500082800020704710B51821FBF76EF80020FA
:1057600010BD01600020704770B50546782025F017
:1057700039FB04467821FBF760F8A570204670BD20
:105780002DE9F0470D4E0F460446012598469146F7
:10579000A91E706823F066FFA078012807D1206950
:1057A0004346C1194A46204600F064FA054670682F
:1057B00023F0B5FF2846BDE8F0870000C8000020B0
:1057C0007FB50124012802D100F068FA0446084D93
:1057D000287850B90020009001900290039068460C
:1057E00023F069FF68600120287004B0204670BD76
:1057F000C8000020FEE700002DE9F0470D4E0F46DF
:105800000446012598469146A91E706823F02AFF98
:10581000A078012807D120694346C1194A4620468D
:1058200000F03EFA0546706823F079FF2846BDE88F
:10583000F0870000C8000020FEE700002DE9F04FCF
:10584000DFF8B4900D4606464119D9F80400C3B0FC
:105850009B469046EA46814246D9052043B0BDE8C2
:10586000F08F012000F0D2F90028F7D102208DF846
:1058700000000AF101013046FFF73AFF99F81500E0
:1058800008B1052700E00427B6FBF8F108FB11601A
:10589000002840460ED0B6FBF0F108FB1161A8EBE2
:1058A0000100A8420AD2B6FBF8F108FB1161A8EB8F
:1058B000010404E0454501D9044600E02C462D1BB7
:1058C00026440AEB070022465946FAF7D3FE002386
:1058D00039191A46684600F085FB070006D100F02A
:1058E000A6FF070002D1A344002DBAD1002000F08A
:1058F0008DF93846B2E70000005E002010B5064C76
:10590000207808B1012010BD002023F0D4FE606093
:1059100001202070002010BDD400002030B5184DAB
:1059200004468DB04FF0FF31686823F09BFE684657
:1059300024F0FEFB686823F0F2FE9DF80610029149
:105940009DF8051003919DF8041004919DF8021034
:1059500005919DF801102046491E06919DF8001002
:105960002C22643107919DF80310491E08910021F3
:1059700009910A9102A9FAF704FF0DB030BD0000A9
:10598000D40000202DE9FC5F05460CA82A4F90E8C2
:10599000000E0E4690461C464FF0FF31786823F00B
:1059A00061FEAAF164008DF8000009F101008DF894
:1059B00001008DF802400BF101008DF804808DF894
:1059C00003008DF80560BDF80400009E60F30F042D
:1059D00065F31744C4F3074024F085FB8DF80000FD
:1059E000C4F3072024F07FFB8DF80100E0B224F01F
:1059F0007AFB8DF8020001208DF80300C6F3074002
:105A000024F071FB8DF80400C6F3072024F06BFB33
:105A10008DF80500F0B224F066FB8DF80600072330
:105A20006A46002168200FF07DFA786823F077FE3F
:105A30000020BDE8FC9F0000D400002010B596B007
:105A40000446022907D10BA8FFF768FF2C220BA9F7
:105A50006846FAF796FE2C2269462046FAF791FE30
:105A600016B010BD0FB4022800B587B00AD11C22B1
:105A70000DA96846FAF785FE0DF1240C9CE80F008D
:105A8000FFF780FF07B05DF814FBF8B504464068E7
:105A90004FF48273984221D1A0684FF48065B0F52D
:105AA000004F01D0A8420AD12068066826F04006BF
:105AB00006606068984211D1A068A8420ED000929A
:105AC0000B4600228021204600F044F8002804D034
:105AD000606D40F0200060650320F8BD00920B4629
