:020000040800F2
:10000000C060002061020008DD3B0008DD3300080D
:10001000993B0008890C0008114B00080000000003
:10002000000000000000000000000000A101000826
:10003000790D000800000000FD01000835430008AC
:100040007B0200087B0200087B0200087B0200089C
:100050007B0200087B0200087B0200087B0200088C
:100060007B0D0008810D0008870D00087B02000849
:100070008D0C00087B020008990C00087B02000828
:100080007B0200087B0200087B0200087B0200085C
:100090007B0200087B0200087B0200088D0D00082F
:1000A0007B0200087B0200087B0200087B0200083C
:1000B0007B0200087B0200087B0200087B0200082C
:1000C0007B0200087B0200087B0200087B0200081C
:1000D0007B020008ED4A00087B020008F94A00088C
:1000E0007B0200087B0200087B0200087B020008FC
:1000F0007B0200087B0200087B0200087B020008EC
:100100007B0200087B0200087B0200087B020008DB
:100110007B0200087B0200087B020008F94300080C
:100120007B020008A50C0008B10C00087B02000847
:100130007B0200087B0200087B0200087B020008AB
:100140007B0200087B0200087B0200087B0200089B
:100150007B020008BD0C0008C90C0008054B000814
:100160007B0200087B0200087B0200087B0200087B
:100170007B0200087B0200087B02000800000000F0
:100180007B0200087B020008DFF810D000F0F4FBCF
:1001900000480047975F0008AFF30080C060002070
:1001A0002C4B19680868B0E8F04F80F30988BFF35A
:1001B0006F8F4FF0000080F311887047000000003F
:1001C00008480068006880F308884FF0000080F35A
:1001D000148862B661B6BFF34F8FBFF36F8F00DF35
:1001E00000BF00BF08ED00E0DFF80C00016841F43B
:1001F00070010160704700BF88ED00E0EFF30980F7
:10020000BFF36F8F134B1A681EF0100F08BF20ED5D
:10021000108A20E9F04F106009B44FF0500080F3CD
:100220001188BFF34F8FBFF36F8F07F0F5F84FF0D2
:10023000000080F3118809BC19680868B0E8F04F25
:100240001EF0100F08BFB0EC108A80F30988BFF3CE
:100250006F8F704714000020EFF305807047000097
:100260000648804706480047FEE7FEE7FEE7FEE750
:10027000FEE7FEE7FEE7FEE7FEE7FEE7E9430008EC
:10028000890100082DE9F05F0546002092469B4653
:1002900088460646814640241BE02846414647469C
:1002A000224600F07AF953465A46C01A914110D3BB
:1002B00011461846224600F061F92D1A67EB010835
:1002C0004F4622460120002100F058F917EB0009A3
:1002D0004E41201EA4F10104DFDC484631462A4687
:1002E0004346BDE8F09F10B5431A934209D28318E4
:1002F000881803E010F8011D03F8011D521EF9D201
:1003000010BD40EA01039B0703D009E008C9121F92
:1003100008C0042AFAD203E011F8013B00F8013BBF
:10032000521EF9D210BDD2B201E000F8012B491ED5
:10033000FBD270470022F6E710B513460A46044682
:100340001946FFF7F0FF204610BD10B5044604E043
:100350000B7800F8013B03B1491C521EF8D220462D
:1003600010BD421C10F8011B0029FBD1801A7047F8
:1003700010B5002200E0521C835C8C5CA34201D1CA
:10038000002BF8D1D8B2E1B2401A10BD034611F8E3
:10039000012B00F8012B002AF9D11846704730B51F
:1003A00005460020034600E05B1C934205D2EC5C4E
:1003B000C85C201A01D1002CF6D130BD70B50F4DAC
:1003C00000B92868002412E00A4602E09E4203D0E9
:1003D000521C1378002BF9D1DAB2224305D02BB18D
:1003E00024B1002100F8011B04E00446401C0678FB
:1003F000002EE9D12860204670BD0000D800002002
:1004000070B5064604F0BEFB046805460A220021CA
:10041000304600F0D2F82C6070BD2DE9F04D81EA35
:10042000030404F0004B21F0004514464FF0000A8D
:1004300023F0004150EA050220D054EA01021DD009
:10044000C5F30A570246C5F31303C1F31300C1F302
:100450000A5640F4801543F48013A7EB0608101BDE
:10046000D64608F2FD3873EB050002D308F1010807
:1004700001E092185B41B8F1000F03DA0020014659
:10048000BDE8F08D00204FF48011064684460EE052
:10049000171B73EB050705D3121B63EB050306431C
:1004A0004CEA010C49084FEA300092185B4150EACF
:1004B0000107EDD152EA030012D082EA040083EA78
:1004C0000501084305D0101BAB4106D201220023D1
:1004D00006E000224FF0004302E06FF001025310EB
:1004E0001AEB06004CEB085110EB0A0041EB0B0134
:1004F000BDE8F04D00F099B8C1F30A5210B5C1F350
:10050000130140F2FF3341F480119A4201DA0020D6
:1005100010BD40F233439A42A2F2334203DC52420E
:1005200000F03BF810BD904010BD00F0004230F0EC
:1005300000400AD0C10D01F56071C0F3160042EA17
:100540000151C2084007114370470020014670471F
:1005500030B50B46014600202022012409E021FA93
:1005600002F59D4205D303FA02F5491B04FA02F590
:100570002844151EA2F10102F1DC30BD202A04DB63
:10058000203A00FA02F1002070479140C2F12003A6
:1005900020FA03F3194390407047202A04DB203AE5
:1005A00021FA02F00021704721FA02F3D040C2F193
:1005B000200291400843194670472DE9F0479146C3
:1005C0000F4680460446002614F8015B2DB100F06A
:1005D000F7F90068405DC007F6D12B2D02D02D2D14
:1005E00018D0641E4A463946204600F0EDF927B17E
:1005F0003968A14201D1C7F8008071054FF00204AB
:100600000BD54042002803DD04F0BCFA0460A007CB
:10061000BDE8F08746F48066E4E70028F8DA04F0E5
:10062000B1FA04606FF00040F2E710B5141E73F1E8
:10063000000408DA401C41F1000192185B411A43A2
:1006400001D120F0010010BD2DE9F04D92469B46EE
:1006500011B1B1FA81F202E0B0FA80F22032904694
:10066000FFF78CFF04460F4640EA0A0041EA0B01FF
:1006700053465A46084313D0114653EA010019D095
:10068000C8F140025046FFF788FF05460E46504627
:1006900059464246FFF772FF084305D0012004E0A7
:1006A00020463946BDE8F08D0020054346EAE07655
:1006B0002C4337430A986305E40AA0EB08000022A4
:1006C000FD0A44EA47540A3002D500200146E9E712
:1006D000010510196941DDE9084500196941BDE8C6
:1006E000F04DA2E72DE9FE4F804681EA0300C00FDE
:1006F0000C46009021F0004123F00045B8EB0200C9
:10070000A94105D24046214690461C460B4602466A
:1007100023F00040104347D0270DC7F30A00C3F36E
:100720000A510290401A019040286BDAC3F313007B
:1007300040F4801B0098924620B10023D2EB030ABC
:1007400063EB0B0B01985946C0F140025046FFF78E
:1007500015FF06460D4650465946019A00F01EF90F
:1007600010EB08006141002487EA115284EAE77324
:100770001A4340D0009A62B3019A012A4FEA075205
:1007800015DC001B61EB02014FF0004202EA075248
:10079000CDE90042001C41F5801132462B46FFF79F
:1007A00053FF03B0BDE8F08F40462146F9E7001B38
:1007B00061EB0201001C41F5801300185B41201819
:1007C000A2F5001747EB030140EAD570B6196D4159
:1007D00011E06D084FEA360645EAC0754FEA075248
:1007E000001B61EB0201001C41F5801149084FEA32
:1007F00030000019514132462B4603B0BDE8F04F9E
:10080000FFF713BF0098012240000023D0EB020243
:1008100063EBE073009821464FEAE074B8EB000008
:1008200061EB0401E9E783F000435BE781F00041FD
:1008300058E72DE9FE4F81EA030404F0004421F05B
:10084000004100944FF0000B23F0004350EA0104F4
:100850005ED052EA03045BD0C3F30A54C1F30A55D5
:100860002C44A4F2F3340194A0FB0254C1F313010D
:1008700041F48011C3F3130343F4801301FB0244DA
:1008800000FB034E840A970A44EA815447EA8357DF
:10089000A4FB076802958D0A05FB07854FEA932C98
:1008A00004FB0C542705029D4FEA065847EA163709
:1008B000B5EB08056EEB070C870E920E47EA811721
:1008C00042EA8312A7FB0201B6EB0B0164EB0004C2
:1008D0002B0D43EA0C335E1844EB1C50DA465146AC
:1008E000E7FB0201C5F313044FEA0B3343EA145349
:1008F0004FEA0432019C43EA0603A4F10C0402947B
:10090000009CCDE900B4FFF79FFE03B0BDE8F08F77
:1009100000200146F9E7C1F30A52C1F3130140F286
:10092000FF3341F480119A4202DA002001467047F9
:1009300040F233439A42A2F2334202DC5242FFF7C2
:100940002CBEFFF71BBE000030B5041E71F1000481
:1009500004DB4FF00044404264EB0101141E73F1CC
:10096000000405DB1C464FF00043524263EB0403D6
:10097000994208BF904230BD064C074D06E0E06842
:1009800040F0010394E8070098471034AC42F6D3D6
:10099000FFF7FEFB2486000844860008202A06DBB9
:1009A000CB17203A41FA02F043EAE07306E041FA3D
:1009B00002F3D040C2F1200291400843194670472B
:1009C00000487047808500082DE9F05F8246007876
:1009D000002715468B460AF10104B946302801D09C
:1009E0009DB113E014F8010B0127782803D0582893
:1009F00001D045B10AE00DB1102D07D10027102517
:100A000014F8010B02E0082500E00A250026B04694
:100A10000EE005FB080005FB06F1012701EB10467F
:100A20001FFA80F8B6F5803F00D3B94614F8010BE1
:100A3000294600F018F80028EBDABBF1000F05D0CA
:100A40000FB1641E00E05446CBF80040B9F1000F2E
:100A500006D004F097F802210160C81EBDE8F09F9F
:100A600048EA0640FAE73A2800D2303820F020025F
:100A7000412A01D3A2F13700884201D34FF0FF3061
:100A800070470000464910B54A6822F440324A6077
:100A90004A6843681A434A6001684A6822F48072CF
:100AA0004A6001684A68036942EA03224A600168B1
:100AB0004A6822F040724A6001684A6883681A43B3
:100AC0004A6001688A6822F400628A6001688A6864
:100AD000C3681A438A60816A6FF07062D14201680C
:100AE0008A6822F070628A6001688A680CD0836A22
:100AF0001A438A6001688A6822F040528A6001685D
:100B00008A68C36A1A4301E022F040528A60016891
:100B10008A6822F002028A6001688A68037E42EADB
:100B200043028A6090F82010002901684A680FD0BB
:100B300042F400624A6001684A6822F460424A60F6
:100B400001684A68174C436A04EB43331A4301E0D7
:100B500022F400624A600168CA6A22F47002CA6222
:100B60000168CA6A838B104C04EB03531A43CA62B0
:100B700001688A6822F400728A6001688A6890F8C5
:100B8000303042EA43228A6001688A6822F4806237
:100B90008A6001688A68406942EA8020886010BDE6
:100BA0000023014000E0FFFF0000F0FF2DE9FC47BB
:100BB000DFF8D0900E4605468119D9F80400144696
:100BC0004FF00108814202D90520BDE8FC87E80703
:100BD0000AD01346541C284601226D1C114602F00F
:100BE000FFFF0028F1D1761E012003F019F900283B
:100BF000EBD1AD208DF80000EA462FE0B8F1000FF0
:100C000012D05746791C284602F044FF99F8150087
:100C100008B1052100E00421207878547A18607822
:100C200050704FF0000806E020788DF801006078E1
:100C300001218DF8020000231A466846891C03F042
:100C400045FB070003D0002003F0EAF817E003F0AB
:100C500060FF0700F7D1A41CAD1CB61E022ECDD23A
:100C6000002003F0DDF80700EDD1012E07D10122AD
:100C700023461146284602F0B3FF0700E3D1384669
:100C8000A3E70000085B0020FEE70000014800F039
:100C9000E5B90000E0040020014800F0DFB90000E1
:100CA00040050020014800F0D9B90000A00500204F
:100CB000014800F0D3B9000020040020014800F0F2
:100CC000CDB9000000060020014800F0C7B90000BF
:100CD0008004002001681823CAB2103AB2FBF3F274
:100CE000054B6FF30901032A9B5CC36500D9091DFD
:100CF00081650846704700003483000810B501463E
:100D000000208B698A6A4FF0C07453B1B3F5005F5D
:100D100015D072B1012A0CD0022A0AD0032A09D1B7
:100D200004E01AB1012A06D0022A03D1C96AC90116
:100D300000D5012010BDC96AA142FAD010BD002A19
:100D4000F7D0012AF2D0022AF3D0032AF3D010BD43
:100D500030B50468256825F4802525600468636043
:100D60008368402B036803D099600068C26030BD7F
:100D70009A600068C16030BD7047042000F018BB65
:100D8000082000F015BB102000F012BB10B5202089
:100D900000F00EFBBDE81040402000F009BB72B629
:100DA000FEE7000078B50024009490F83C20012A6A
:100DB00019D0012280F83C200A6807230568092A17
:100DC00013D9EE680A3A02EB420293409E43EE606A
:100DD0000B788A680A3B03EB43039A400368DD689B
:100DE0002A43DA6010E0022078BD2E6902EB42024D
:100DF00093409E432E610B788A6803EB43039A402D
:100E000003681D692A431A614A681F23072A13D2FF
:100E100005686E6B521E02EB820293409E436E6326
:100E20000B790A885B1E92B203EB83039A40036836
:100E30005D6B2A435A6327E005680D2A12D22E6B98
:100E4000D21F02EB820293409E432E630B790A88E5
:100E5000DB1F92B203EB83039A4003681D6B2A43A6
:100E60001A6311E0EE6A0D3A02EB820293409E4350
:100E7000EE620B790A880D3B92B203EB83039A4032
:100E80000368DD6A2A43DA62164B0568144A9D42FC
:100E900006D10D68122D03D1556845F480055560C3
:100EA00005689D4218D10B68102B01D0112B13D16E
:100EB000536843F400035360096810290CD10A49B0
:100EC0000A4A0968B1FBF2F101EB8101490000E037
:100ED000491E00910029FBD180F83C40002078BDDC
:100EE00000230140002001401000002040420F007C
:100EF00070B504004FF0000503D0206C002610B13F
:100F000007E0012070BD204600F01CF8666484F8FC
:100F10003C60206CC00610D4206C20F4885040F057
:100F2000020020642046FFF7ADFD6664206C20F0CF
:100F3000020040F00100206400E0012584F83C60DC
:100F4000284670BD10B586B0044614216846FFF7E8
:100F5000F1F91149206888421CD11048002102682B
:100F600042F480720260006800F4807005900B48C3
:100F70001438026842F001020260006800F00100CB
:100F80000590042000900320CDE901016946044842
:100F900000F01AFA06B010BD0020014044380240AB
:100FA000000002402DE9F0410446876D00F00EFB81
:100FB000064694F835000025022806D0802060659A
:100FC00084F834500120BDE8F0812068016821F0E8
:100FD000160101602068416921F080014161206CA7
:100FE00008B9A06C20B12068016821F008010160F7
:100FF0002068016821F0010101600CE000F0E6FAD0
:10100000801B052807D920206065032084F835005F
:1010100084F83450D7E720680068C007EED194F810
:101020005C103F208840B860012084F8350084F8C7
:1010300034500020C7E790F83510022903D08021F2
:10104000416501207047052180F83510006801686E
:1010500021F0010101600020704700002DE9F843F4
:1010600004464FF00009CDF8009063484FF4165144
:10107000A56D0068B0FBF1F72E6894F85C100820AD
:1010800000FA01F131420FD021680A6852070BD5EE
:101090000A6822F004020A6094F85C108840A86094
:1010A000606D40F00100606594F85C104FF001083D
:1010B00008FA01F0304208D021684969090604D5D0
:1010C000A860606D40F00200606594F85C10042038
:1010D0008840304208D021680968890704D5A86093
:1010E000606D40F00400606594F85C10102088404A
:1010F000304218D021680968090714D5A860206813
:101100000168490304D50068000308D5A16C07E015
:101110000168C90503D4016821F008010160216C50
:1011200009B12046884794F85C102020884030425E
:1011300031D021680968C9062DD5A86094F835001A
:1011400005282068016806D0490347D500680003D8
:101150001DD4616C1CE021F016010160206841691A
:1011600021F080014161206C08B9A06C20B1206899
:10117000016821F00801016094F85C103F2088406C
:10118000A86084F8358084F83490216D1FE0E16B0D
:1011900009B120468847606D00282BD0606DC007DC
:1011A00014D0052084F835002068016821F0010181
:1011B00001600098401C0090B84203D82068006885
:1011C000C007F6D184F8358084F83490E16C0029AA
:1011D00010D001B02046BDE8F04308470168C905BA
:1011E000D5D4016821F01001016084F8358084F8BD
:1011F0003490CCE7BDE8F883100000202DE9F041E1
:10120000044600F0E3F906465CB1022084F835009C
:10121000002584F834502068016821F00101016044
:101220000DE00120BDE8F08100F0D0F9801B052819
:1012300005D920206065032084F83500F2E7206896
:101240000068C007F0D12268116820480140D4E945
:1012500001031843D4E90336334318436369184341
:10126000A3691843E3691843236A18430843616A72
:10127000042903D1D4E90B131943084310602068F3
:101280004069666A20F0070130460E4301270428B2
:101290000CD1A06A0643E06A40B12046FFF72EFD5C
:1012A00020B14020606584F83570BAE72068466157
:1012B0002046FFF70FFD94F85C203F2191408160AC
:1012C000656584F835700020ACE700003F8010F0C1
:1012D0002DE9F0410446866D90F834000025012880
:1012E0000DD0012084F8340094F835700020012FCF
:1012F00007D084F8340002252846BDE8F08102209A
:10130000FBE7022784F8357060652046FFF720FD73
:1013100094F85C103F208840B0602068016841F07C
:1013200016010160206C20B12068016841F00801BD
:1013300001602068016841F001010160DCE7000004
:1013400070B5044600F042F90546601C02D004481E
:101350000078044400F03AF9401BA042FAD370BD73
:101360000400002010B5082818D008DC01280FD090
:10137000022810D0042801D104F0C8FC10BD1028A8
:101380000FD0202810D04028F8D104F0C3FC10BDA5
:1013900004F0BAFC10BD04F0B8FC10BD04F0B7FCBA
:1013A00010BD04F0B5FC10BD04F0B3FC10BD00008E
:1013B000044910B50A68024202D00860FFF7D2FF64
:1013C00010BD0000143C01402DE9F84FDFF8BCA12E
:1013D0000022012503264FF00F090AF1040BAAF1A0
:1013E000040E00BF0B6805FA02F42340A34270D13B
:1013F0000F7907F00307012F01D0022F16D187685C
:101400004FEA420806FA08FC27EA0C07D1F80CC09C
:101410000CFA08FC4CEA070CC0F808C04768A74360
:101420000C79C4F3001494403C4344600C79E443C9
:10143000A4070AD0C4684FEA420C06FA0CF7BC4372
:101440008F6807FA0CF72743C7600C7904F0030490
:10145000022C12D1D40800EB840CDCF82040570792
:10146000FF0E09FA07F824EA0804D1F8108008FAF8
:1014700007F848EA0408CCF8208004684FEA420CD8
:1014800006FA0CF7BC430F7907F0030707FA0CF7CD
:10149000274307604C6814F4403F70D03C4C2768E9
:1014A00047F480472760246822F0030704F480444F
:1014B0000094384C07EB040CDCF8084897074FEA17
:1014C000177809FA08F7BC43334FB84202D1002716
:1014D00024E054E0314FB84201D101271EE0304FE3
:1014E000B84201D1022719E02E4FB84201D103279B
:1014F00014E02D4FB84201D104270FE02B4FB84222
:1015000001D105270AE02A4FB84201D1062705E09C
:10151000284FB84201D1072700E0082707FA08F74B
:101520002743CCF80878DAF800405746D1F804C0D1
:101530009C435FEACC2C00D51C433C60DBF80040A8
:101540005F46D1F804C09C435FEA8C2C00D51C4355
:101550003C60DEF800407746D1F804C09C435FEA67
:101560008C3C00D51C433C60084F083F3C68D1F8D8
:1015700004C09C435FEACC3C00D51C433C60521C39
:10158000102AFFF42FAFBDE8F88F0000083C01409F
:101590004438024000300140000002400004024094
:1015A00000080240000C02400010024000140240FB
:1015B00000180240001C02400069084000D00120D1
:1015C00070470AB1816170470904FBE701488068F0
:1015D000704700000400002070B5040025D094F886
:1015E0003D00002520B984F83C50204600F0B8F8B2
:1015F000242084F83D002068016821F00101016089
:101600002068016841F4004101602068016821F40C
:101610000041016000F090FA4D4A6168914201D8A2
:101620004C4900E04C49884201D2012070BD4B4931
:101630002368B0FBF1F15E6826F03F060E435E6062
:101640006368934206D94FF4967359434FF47A7303
:10165000B1FBF3F12368491C1E6A26F03F063143B3
:1016600019626168914210D84900401EB0FBF1F246
:10167000521CC2F30B02042A01D2042022E0B0FB68
:10168000F1F0401CC0F30B001CE0A268F2B301EBC8
:10169000C10303EB0116431EB3FBF6F35B1C43F4DB
:1016A00080431B0549D092B301EBC10202EB01114B
:1016B000401EB0FBF1F0401CC0F30B0040F4804032
:1016C00040F400402168CA694CF6FF739A43104306
:1016D000C861D4E9071001432068026822F0C00203
:1016E00011430160D4E9030101432068826848F294
:1016F000FF339A4311438160D4E90501084321680F
:10170000CA6822F0FF021043C86001E00EE016E054
:101710002068016841F0010101602564202084F8FF
:101720003D00256384F83E50002070BD01EB41066A
:10173000431EB3FBF6F35B1CB3E70120C2E701EBEA
:101740004101401EB0FBF1F0401CC0F30B00B7E7B5
:10175000A086010080841E0000093D0040420F0069
:1017600010B586B0044614216846FEF7E3FD134920
:101770002068884220D112480021026842F002020B
:101780000260006800F002000590C0200090122066
:10179000CDE9010103200390042004906946094823
:1017A000FFF712FE06481030016841F40011016095
:1017B000006800F40010059006B010BD0054004011
:1017C000303802400004024070B5040011D0216896
:1017D0004CF6CC400860216845F255500860D4E9C9
:1017E000000141602168A0688860FFF7EFFE0546B0
:1017F0000DE0012070BD00BFFFF7E8FE401B31285F
:1018000005D92068C068800701D0032070BD20681A
:10181000C0688007F0D121684AF6AA20086000203D
:1018200070BD00684AF6AA210160002070470000E0
:1018300002488168027811448160704704000020EA
:101840000B4810B5016841F400710160016841F472
:1018500080610160016841F480710160032000F043
:101860009FF8002000F006F800F050F8002010BDAE
:10187000003C024030B505461F4887B0002401688F
:1018800041F020010160006806A900F020000090EE
:1018900001A800F031F90498A8B100F04DF940001A
:1018A0001649174AB0FBF1F11648491E026040F292
:1018B000E732C0E90324C0E90114846100F0A2FE0C
:1018C000040003D015E000F037F9E9E70D4800F017
:1018D000DBFE04000DD1372000F034F8102D07D2C4
:1018E00000222946372000F03BF80748056000E059
:1018F000012407B0204630BD4038024040420F006E
:101900000014004060060020080000200C4882B04F
:10191000016841F480410160006800F4804000905B
:101920000748001F016841F08051016000680022F3
:1019300000F0805000900F21901E02B000F010B80F
:1019400044380240002809DB00F01F0201219140C9
:101950004009800000F1E020C0F80011704700004D
:10196000F0B40E4B1B680C46C3F30223C3F107050A
:10197000042D00D90425191D072901D2002300E0F8
:10198000DB1E012606FA05F1491E214099409E40C2
:10199000761E16403143F0BC03F0E4B80CED00E0D5
:1019A000064900F0070208684FF6FF03184040EAB6
:1019B0000220034A10430860704700000CED00E06D
:1019C0000000FA052DE9F0470E46050065D0DFF866
:1019D0001481D8F80000F7B200F00700B04207D237
:1019E00088F80070D8F8000000F00700B04254D129
:1019F00028683D4C810712D5400703D5206840F484
:101A0000E05020602878000703D5206840F460404B
:101A100020602068A96820F0F00008432060287842
:101A2000C0072DD0304968680839012812D0022833
:101A300013D0032811D00968890700292DDA2168FD
:101A400021F0030101432160FFF7C0FD814641F20F
:101A5000883A0EE009688903EFE709688901ECE735
:101A6000FFF7B4FDA0EB0901514502D90320BDE801
:101A7000F0872068696800F00C00B0EB810FEFD1AF
:101A8000D8F80010404601F00701B14207D90770AD
:101A9000006800F00700B04201D00120E7E7287895
:101AA000400705D52068E96820F4E050084320602D
:101AB0002878000706D52068296920F4604040EAAC
:101AC000C100206000F058F82168084AC1F30311F2
:101AD000515CC8400649086006480068FFF7CAFE26
:101AE0000020C4E7003C0240083802403C83000864
:101AF00010000020080000200F2202600C4A13682A
:101B000003F003034360136803F0F003836013687A
:101B100003F4E053C36012684FF4E05303EAD202C7
:101B200002610448006800F0070008607047000088
:101B300008380240003C0240044805490068096832
:101B4000044AC1F38221515CC84070471000002054
:101B5000083802404C8300080448054900680968B9
:101B6000044AC1F34231515CC84070471000002064
:101B7000083802404C830008154810B5006810F082
:101B80000C02144813D01449042A0FD0082A0ED18D
:101B90000F4C241F2268236802F03F025B0207D526
:101BA0002068C0F38810A0FB010106E0084610BDC4
:101BB0002168C1F38811A1FB00010023FEF762FB3D
:101BC0002168C1F30141491C4900B0FBF1F010BD8F
:101BD000083802400024F40040787D012DE9F84FD8
:101BE00004006ED02078DFF84C93C007A9F10405FB
:101BF0004AD009F104000168C1F38101012908D02C
:101C00000068C0F3810002280AD1D9F80000400220
:101C100006D52868800337D560680028E1D033E016
:101C20006068B0F5803F10D0B0F5A02F286810D0C4
:101C300020F480302860286820F4802028606068C4
:101C4000A8B1FFF7C3FC06460DE0286840F48030D9
:101C5000F4E740F480202860F7E700BFFFF7B6FC08
:101C6000801B642873D828688003F7D50CE0FFF741
:101C7000ADFC064605E000BFFFF7A8FC801B64280A
:101C8000F0D828688003F7D42078DFF8AC8280078A
:101C90004FF0000A3ED5A748001D016811F00C0F57
:101CA00008D00068C0F3810002280BD1D9F80000E9
:101CB000400207D42868800716D5E068012800D1C3
:101CC00012E033E1E068B8B10120C8F80000FFF786
:101CD0007DFC064605E000BFFFF778FC801B02286C
:101CE000C0D828688007F7D52868216920F0F80057
:101CF00040EAC10028600DE0C8F800A0FFF766FCCC
:101D0000064604E0FFF762FC801B02281FD8286803
:101D10008007F7D42078000722D5864F874861696D
:101D2000703771B101210160FFF750FC064604E0F5
:101D3000FFF74CFC801B022809D838688007F7D5CC
:101D40000EE0C0F800A0FFF741FC064605E082E087
:101D5000FFF73CFC801B02287DD838688007F7D449
:101D60002078400768D5DFF8CCB100270BF13C0B99
:101D7000DBF80000C0000BD4DBF8001041F080510C
:101D8000CBF80010DBF80000012700F08050009035
:101D90006B4E3068C00510D4306840F480703060FD
:101DA000FFF714FC009005E0FFF710FC0099401AC3
:101DB000022850D83068C005F6D55E4EA0686C3653
:101DC00001280FD00528306810D020F001003060C5
:101DD000306820F004003060A068B8B1FFF7F6FB6F
:101DE00000900FE0306840F00100F4E740F004009C
:101DF0003060F7E7FFF7EAFB0099411A41F28830BB
:101E0000814266D830688007F4D50EE0FFF7DEFB2C
:101E1000009007E0FFF7DAFB0099411A41F28830A1
:101E2000814256D830688007F4D42FB1DBF8001017
:101E300021F08051CBF80010A069C8B33D49091DBD
:101E40000968C1F3810102294AD00228504607D00F
:101E5000C8F8600000E03CE0FFF7B8FB04463BE058
:101E60004746C8F86000FFF7B1FB064605E000BF33
:101E7000FFF7ACFB801B02282BD828688001F7D421
:101E8000D4E907010843A16A2E4A490802EB01413F
:101E9000626A41EA8211084394F82C1040EA016119
:101EA000C9F8001001203866FFF790FB044606E0F1
:101EB0003EE000BFFFF78AFB001B022809D8286814
:101EC0008001F7D534E000BFFFF780FB001B02283C
:101ED00002D90320BDE8F88F28688001F4D427E0F8
:101EE0000128F7D0D9F80000E26900F4800191429E
:101EF0001CD1226A00F03F01914217D147F6C07110
:101F0000626A0140B1EB821F10D1A26A4FF0FF3329
:101F100000F4403103EB5202B1EB024F06D194F8CA
:101F20002C1000F07060B0EB016F01D00120D1E700
:101F30000020CFE70438024000004742800E4742AD
:101F4000007000400000FFFF70B5040009D0606A17
:101F5000002540B125616561A56294F8510040B14A
:101F60000CE0012070BD6068B0F5827FF4D0E561BF
:101F7000F2E784F85050204600F044F8022084F83C
:101F800051002068016821F040010160A08821898A
:101F900000F4827001F404410843A18901F4006156
:101FA0000843217C01F002010843217D01F0010179
:101FB0000843218B01F400710843217F01F03801AF
:101FC000084394F8201001F080010843218D01F4AA
:101FD0000051084321680860A069042101EA10400B
:101FE00094F8241001F0100108432168486020682B
:101FF000C16921F40061C1616565012084F8510067
:10200000002070BD10B586B0044614216846FEF766
:1020100091F914492068884221D1134800210268AF
:1020200042F400420260006800F4004005900E484F
:102030001038026842F004020260006800F00400F8
:1020400005904FF4E05000900220CDE901010320FB
:1020500003900620049069460448FFF7B5F906B0DE
:1020600010BD0000003C0040403802400008024023
:102070002DE9F84F044690F851001D4616460F46CC
:10208000012838D160684FF00408B0F5827F01D193
:10209000A06830B3FFF79AFA8246002F75D0002E61
:1020A00073D094F85000012825D04FF0010984F82E
:1020B000509084F851804FF00008C4F85480A76312
:1020C000A687E687C4F83080A4F83480A4F8368068
:1020D000C4F84080C4F84480A068B0F5004F0CD02C
:1020E00015E084F85180009313460A46204600F01C
:1020F0001CF9BDE8F88F0220FBE72068016821F099
:10210000400101602068016821F48041016020687D
:102110000168490603D4016841F040010160E068AC
:10212000C0B134E020688168C90709D0007BA16B89
:102130000870A06B401CA063E08F401EE08709E0A0
:10214000FFF744FAA0EB0A00A84202D3681C01D0B2
:1021500032E085B3E08F0028E4D11BE0206881687D
:10216000C90709D0C068A16B0880A06B801CA06360
:10217000E08F401EE0870AE0FFF728FAA0EB0A0094
:10218000A84203D3681C02D016E012E09DB1E08F94
:102190000028E3D152462946204601F081FD08B1CE
:1021A0002020606584F8519084F85080606D00288C
:1021B0009FD001209DE7FFE784F8519084F850807C
:1021C000032096E72DE9F84F984616468A460446BE
:1021D000FFF7FCF9814694F8510001281ED1BAF1AD
:1021E000000F73D0002E71D094F85000012815D044
:1021F000012784F85070032084F85100002565659C
:10220000C4F830A0A686E686A563A587E587656441
:102210002564A068B0F5004F03D00CE00220BDE8B3
:10222000F88F2068016821F0400101602068016892
:1022300041F48041016020680168490603D40168C7
:1022400041F040010160E068B0F5006F606803D0C4
:1022500048B3012E27D047E008B1012E1FD1206BD3
:1022600021680088C86006E020688168890709D570
:10227000216B0988C160206B801C2063E08E401EAA
:10228000E0860CE0FFF7A2F9A0EB0901414503D37A
:10229000B8F1FF3F03D035E0B8F1000F32D0E08E47
:1022A0000028E1D123E0206B21680078087306E064
:1022B0002068816889070AD5216B09780173206B32
:1022C000401C2063E08E401EE0860DE02BE0FFF70F
:1022D0007DF9A0EB0901414503D3B8F1FF3F03D0DD
:1022E00010E0B8F1000F0DD0E08E0028E0D14A4692
:1022F0004146204601F002FD08B120206065A0683B
:1023000030B109E084F8517084F85050032086E71A
:102310002068C1688068009084F8517004F8505FAC
:1023200060680028F3D0012079E72DE9FF4F81B0E4
:102330001D46934604464FF001090E9EFFF746F9ED
:10234000074694F851006168012806D0B1F5827FF4
:102350003CD1A168C9BB042838D10298002871D0AB
:10236000BBF1000FFBD0002DF9D094F850000128EC
:102370002CD04FF0010A84F850A094F851000428A2
:1023800002D0052084F851004FF00008C4F85480B2
:10239000C4F838B0E587A58702992163E586A5864C
:1023A000C4F84080C4F8448020680168490603D41A
:1023B000016841F040010160E068B0F5006F6068BD
:1023C00008D0F0B3012D49D081E0FFE7022005B02D
:1023D000BDE8F08F08B1012D39D1206B216800884C
:1023E000C860206B801C2063E08E401EE0862EE0DB
:1023F0002068816889070FD5E18E69B1B9F1010FB5
:102400000AD1216B0988C160206B801C2063E08E9B
:10241000401EE0864FF0000920688168C9070CD093
:10242000E18F51B1C068A16B0880A06B801CA063D4
:10243000E08F401EE0874FF00109FFF7C7F8C01B8F
:1024400001E00BE067E0B04201D3701C50D1E08E98
:102450000028CDD1E08F0028CAD13EE0206B216852
:1024600000780873206B401C2063E08E401EE086DD
:102470002DE02068816889070FD5E18E69B1B9F137
:10248000010F0AD1216B09780173206B401C206376
:10249000E08E401EE0864FF0000920688168C90781
:1024A0000CD0E18F51B1C068A16B0870A06B401CCB
:1024B000A063E08F401EE0874FF00109FFF786F828
:1024C000C01BB04202D3701C01D011E086B1E08E77
:1024D0000028CED1E08F0028CBD13A4631462046A5
:1024E00001F00CFC50B12020606584F8508012E0AF
:1024F00084F851A084F85080032068E7A06818B9D8
:102500002068C1688068009084F851A084F85080E9
:10251000606D0028F1D0012059E77047704710B571
:1025200090F83C20012A22D0012280F83C20CA6881
:102530008C6822F4407222434C6822F48062224369
:102540000C6822F4006222430C6922F48052224378
:102550004C6922F400522243C969002322F48042CC
:102560000A4301684A6480F83C30002010BD022014
:1025700010BD000070B590F83C20012A32D0012433
:1025800080F83C40022280F83D2003685A689D682C
:1025900022F070060A6832435A60134B02689A426E
:1025A00014D0B2F1804F11D0104B9A420ED0104B84
:1025B0009A420BD00F4B9A4208D00F4B9A4205D04B
:1025C0000E4B9A4202D00E4B9A4204D1496825F034
:1025D00080031943916080F83D40002180F83C1051
:1025E000084670BD022070BD00000140000400409C
:1025F00000080040000C0040000401400040014081
:102600000018004010B5040003D094F83D0010B14C
:1026100007E0012010BD002084F83C00204600F0B7
:102620001FF8022084F83D00211D206801F0EAFE19
:10263000012084F8460084F83E0084F83F0084F8C6
:10264000400084F8410084F8420084F8430084F894
:10265000440084F8450084F83D00002010BD0000CF
:1026600008B500680649884208D10648016841F467
:1026700000310160006800F40030009008BD0000E7
:10268000004401404438024090F83D10012901D037
:1026900001207047022180F83D100168CA6842F0AD
:1026A0000102CA6000681149884214D0B0F1804F1D
:1026B00011D00F4988420ED00E4988420BD00E49E6
:1026C000884208D00D49884205D00D49884202D081
:1026D0000C49884204D1816801F00701062903D022
:1026E000016841F0010101600020704700000140D5
:1026F0000004004000080040000C004000040140BD
:10270000004001400018004070472DE9F0410446A8
:102710000068C66805694FF00007A90713D5B1071F
:1027200011D5F91E0161012020772068806980079A
:10273000204602D0FFF7E8FF04E000F028F9204629
:1027400000F022FA2777680716D5700714D521689C
:102750006FF004000861022020772068806910F47F
:10276000407F204602D0FFF7CFFF04E000F00FF9D2
:10277000204600F009FA2777280715D5300713D52A
:1027800021686FF008000861042020772068C06984
:102790008007204602D0FFF7B7FF04E000F0F7F80B
:1027A000204600F0F1F92777E80616D5F00614D593
:1027B00021686FF010000861082020772068C06948
:1027C00010F4407F204602D0FFF79EFF04E000F0A7
:1027D000DEF8204600F0D8F92777E80708D0F007A0
:1027E00006D021686FF001000861204600F032FA3F
:1027F000280608D5300606D521686FF080000861EC
:102800002046FFF78AFE680608D5700606D52168BF
:102810006FF040000861204600F026FAA8060AD5AD
:10282000B00608D521686FF0200008612046BDE899
:10283000F041FFF773BEBDE8F0810000F0B587B04E
:10284000044614216846FDF775FD2468334D0022C7
:10285000334902230120334EAC4210D10C6844F0BE
:1028600010040C60096801F010010591410200910B
:10287000CDE90132CDE903206946304625E0032544
:10288000B4F1804F12D0284F2848BC4221D10C68A7
:1028900044F002040C6009680093CDE9013201F0B4
:1028A0000201CDE90431039269460EE00C6844F060
:1028B00001040C6009680095CDE9013201F00101C5
:1028C000CDE90401039269461948FEF77DFD07B082
:1028D000F0BD184FBC420ED1086840F010000860EF
:1028E0000868694600F01000059020200090CDE9AE
:1028F000013230460FE0104EB442E8D10C6844F08B
:1029000002040C60096801F002010591B115009103
:10291000CDE901326946CDE90325D6E70000014043
:102920003038024000100240000400400004024021
:1029300000000240004001400044014070B50446E0
:1029400090F83C00002501280FD0012084F83C00BD
:102950006AB1042A0FD0082A11D00C2A13D00125FD
:10296000002084F83C00284670BD022070BD20681D
:1029700001F0C2FDF4E7206801F0EEFDF0E7206809
:1029800001F020FEECE7206801F050FEE8E7704718
:1029900010B5040003D094F83D0010B107E0012009
:1029A00010BD002084F83C00204600F01FF80220F3
:1029B00084F83D00211D206801F024FD012084F8E9
:1029C000460084F83E0084F83F0084F8400084F814
:1029D000410084F8420084F8430084F8440084F8FD
:1029E000450084F83D00002010BD000008B50068D7
:1029F0000649884208D10648016841F00201016099
:102A0000006800F00200009008BD000000040040D3
:102A10004038024070B5044690F83C0000260D4650
:102A200001280FD0012084F83C006AB1042A1DD08F
:102A3000082A2FD00C2A3FD00126002084F83C0021
:102A4000304670BD022070BD206801F055FD206841
:102A5000816941F0080181612068816921F00401E8
:102A60008161206881692A69114311E0206801F0C1
:102A700073FD2068816941F400618161206881698A
:102A800021F480618161206881692A6941EA02211B
:102A90008161D2E7206801F095FD2068C16941F0AD
:102AA0000801C1612068C16921F00401C161206889
:102AB000C1692A69114311E0206801F0B7FD20685F
:102AC000C16941F40061C1612068C16921F480617C
:102AD000C1612068C1692A6941EA0221C161ACE78C
:102AE00010B5040003D094F83D0010B107E00120B8
:102AF00010BD002084F83C00204600F01FF80220A2
:102B000084F83D00211D206801F07CFC012084F840
:102B1000460084F83E0084F83F0084F8400084F8C2
:102B2000410084F8420084F8430084F8440084F8AB
:102B3000450084F83D00002010BD000008B50F4A94
:102B400001680F48914207D1016841F0010101601D
:102B5000006800F001000CE0B1F1804F0BD0094A91
:102B6000914207D1016841F480310160006800F4AE
:102B70008030009008BD0248001FE5E700000140DA
:102B800044380240004001407047000010B5044640
:102B9000022249B104290ED0082913D094F841002B
:102BA000012816D0012010BD94F83E000128F9D16B
:102BB00084F83E200FE094F83F000128F2D184F819
:102BC0003F2008E094F840000128EBD184F8402031
:102BD00001E084F841200122206801F07FFC1649C1
:102BE0002068164A884201D0904203D1436C43F4D6
:102BF000004343642068884213D0B0F1804F10D066
:102C00000F4988420DD00F4988420AD00E498842A8
:102C100007D0904205D00D49884202D00C49884225
:102C200004D1816801F00701062903D0016841F051
:102C300001010160002010BD0000014000040140BE
:102C40000004004000080040000C0040004001402B
:102C50000018004000680349884201D1FEF7E8BD32
:102C60007047000000140040704738B5044690F8E3
:102C70004200202801D0022038BD61B15AB10120A4
:102C8000206300206063204601F094FE0028F3D109
:102C9000216B012901D0012038BD21680A684968EB
:102CA000009121680C3151E8002F42F0100241E8F8
:102CB0000023002BF5D138BD18B5034690F842002B
:102CC000202801D0022018BD61B15AB1012018633B
:102CD00000205863184601F0B5FE0028F3D1196BA7
:102CE000012901D0012018BD19680A6849680091BE
:102CF00019680C3151E8002F42F0100241E800241D
:102D0000002CF5D118BD000010B5134C0268131B40
:102D1000A2421ED00BDC114BD21814D0B2F5806F3A
:102D200014D0B2F5006F01D104F041F910BDB3F534
:102D3000404F05D0B3F5444FF8D104F03CF910BD35
:102D400004F012F910BD04F02EF910BD04F02DF9B5
:102D500010BD04F02EF910BD0050004000BCFFBFB4
:102D600070470000F8B5016804460868CA684B69F6
:102D700010F00F0F4FF0000559D003F0010602F4D8
:102D80009077374365D0C10705D0D10503D5616C75
:102D900041F001016164410705D5D90703D0616C99
:102DA00041F002016164810705D5D90703D0616C48
:102DB00041F004016164010707D502F020013143AD
:102DC00003D0616C41F008016164616C00293AD064
:102DD000800604D5900602D5204601F003FD206848
:102DE0004069616CC0F38010090700D460B32046CD
:102DF00001F0C3FC20684069400621D520681430EA
:102E000050E8001F21F0400140E80012002AF5D1EF
:102E1000E06BA8B16E490165E06BFEF70CF9002884
:102E200011D0E06B016D01B0BDE8F04008478306AA
:102E30000FD593060DD52046BDE8F84001F0D2BC71
:102E40002046FFF78DFFF8BD2046FFF789FF656438
:102E5000F8BD266B2023012E7DD1C6067BD5D60674
:102E600079D508684868009048694FF00206400626
:102E700041D5E16B086840680004000CE8D0A28DE1
:102E80008242E5D9E085C869B0F5807F2DD0206801
:102E90000C3050E8001F21F4807140E80012002A35
:102EA000F5D12068143050E8001F21F0010140E8FE
:102EB0000012002AF5D12068143050E8001F21F0DC
:102EC000400140E80012002AF5D184F84230256321
:102ED00020680C3050E8001F21F0100140E800127B
:102EE000002AF5D1E06BFEF75DF86663A08DE18DF9
:102EF000401A81B22AE0A08DE18D401A81B2E08DA6
:102F00000028A5D00029A3D022680C3252E8000F77
:102F100020F4907042E80007002FF5D120681430AB
:102F200050E8002F22F0010240E80027002FF5D1E1
:102F300084F84230256320680C3050E8002F22F0DE
:102F4000100240E80023002BF5D166632046FFF70E
:102F5000DBFEF8BDFFE705062BD5150629D594F84D
:102F600041002128F5D1A068B0F5805F01D120692A
:102F7000B0B1206A411C2162216800784860E08C71
:102F8000401E0004000CE084E3D12068C16821F0F9
:102F90008001C1602068C16841F04001C160D8E78C
:102FA000206A0088C0F308004860206A801C206204
:102FB000E5E74006CDD55006CBD5CA68204622F0BD
:102FC0004002CA6084F8413000F007FAC1E700000F
:102FD0007D46000870B5040004D094F84100002537
:102FE00010B106E0012070BD84F84050204600F08A
:102FF00023F8242084F841002068C16821F400519E
:10300000C160204601F050FC2068016921F4904124
:1030100001612068416921F02A0141612068C1688D
:1030200041F40051C1606564202084F8410084F8B7
:1030300042006563002070BD2DE9F04F87B0044663
:1030400014216846FDF776F99B48DFF8688214384A
:10305000D4F800C0984B0221032240270025061512
:103060004FF007094FF0006BC4455BD1D3F800C0A7
:10307000AA464CF0100CC3F800C01B6803F0100304
:103080000593036843F001030360006800F001004A
:10309000059050028DE82300CDE903296946874851
:1030A000FEF792F9DFF81C8285494046C8F8001007
:1030B000C0E901B5C0E90356C8F81450C8F8185063
:1030C000C8F81C50C8F82050D946C8F82450FEF75C
:1030D00095F808B1FDF763FE7A4DC4F83C80784856
:1030E0006035C8F838407830AF60C5E90009C5E9F7
:1030F00003A6C5F814A0C5F818A0C5F81CA0C5F80B
:1031000020A02846C5F824A0FEF778F808B1FDF7FE
:1031100046FEA563002205212520AC63FEF720FCB6
:10312000252062E0DFF8A081C44563D1624BAA4646
:103130001B1FD3F800C04CF4802CC3F800C01B68E0
:1031400003F480230593036843F0020303600068DF
:1031500000F0020005904FF440608DE82300CDE9B7
:10316000032969465948FEF72FF9DFF85881584975
:1031700008F1C0084046C8F80010C0E901B5C0E930
:103180000356C8F81450C8F81850C8F81C50C8F8AE
:103190002050D946C8F82450FEF730F808B1FDF7A2
:1031A000FEFD4C4DC4F83C804948C8F838403030EA
:1031B000AF60C5E90009C5E903A6C5F814A0C5F8C4
:1031C00018A0C5F81CA0C5F820A02846C5F824A062
:1031D000FEF714F808B1FDF7E2FDA5630022052112
:1031E0002720AC63FEF7BCFB2720FEF7ABFB07B044
:1031F000BDE8F08FDFF8E080C445F8D1D3F800C017
:103200004CF0200CC3F800C01B6803F020030593AA
:10321000036843F004030360006800F004000590B5
:10322000C0208DE823000820CDE9032069462B4803
:10323000FEF7CAF8DFF89C90214909F160091839B6
:1032400048464FF0206AC9F80010C0E901A5C0E95E
:103250000356C9F81450C9F81850C9F81C50C9F8D9
:103260002050B046C9F82450FDF7C8FF08B1FDF75B
:1032700096FD184EC4F83C90C036C9F83840C6E9EF
:103280000275C6E90485B5610D48F56135626030A7
:103290007562C6E9000A3046FDF7B0FF08B1FDF7D8
:1032A0007EFDA663002205214720B463FEF758FB8C
:1032B00047209AE7001001404438024000000240D5
:1032C0004064024020040020004800400004024006
:1032D0002860024040050020001401400008024020
:1032E00010B5134B0168CA1A99421ED00BDC114A63
:1032F000891814D0B1F5806F14D0B1F5006F01D1E9
:1033000003F054FE10BDB2F5404F05D0B2F5444F66
:10331000F8D103F04FFE10BD03F025FE10BD03F001
:1033200041FE10BD03F040FE10BD03F041FE10BD94
:103330000050004000BCFFBF70472DE9F843044631
:1033400090F84100984616460D46202802D00220EB
:10335000BDE8F88385B17EB100206064212084F847
:103360004100FEF733F9A6848146E684A068202751
:10337000B0F5805F02D003E00120E9E7206910B1D9
:103380002E4600250EE000260CE08021204601F0AC
:1033900074FBA8B9C6B116F8010B21684860E08C2F
:1033A000401EE084E08C4B464FF00002CDF80080D8
:1033B0000028EAD14FF04001204601F05EFB40B109
:1033C00084F841700320C3E735F8020BC0F308000E
:1033D000E3E784F841700020BAE77047FEE7000099
:1033E0007FB5002415480094019402941249039477
:1033F00001604FF48031C0E901140461047680F863
:1034000020400F49C0E90A140125C561C46080F855
:1034100030404561FDF76CFD08B1FDF7C0FC0220AE
:10342000CDE90005694602940448FDF7BBFC00287D
:1034300001D0FDF7B4FC7FBD00200140E00000207A
:103440000100000F214808B5016841F480010160C6
:10345000016801F480010091016841F400110160EC
:103460000068002200F40010009005210C20FEF7F7
:1034700077FA0C20FEF766FA002205210E20FEF7EF
:103480006FFA0E20FEF75EFA002205213920FEF7C2
:1034900067FA3920FEF756FA002205213A20FEF796
:1034A0005FFA3A20FEF74EFA002205214520FEF78A
:1034B00057FA4520FEF746FA002205214620FEF77E
:1034C0004FFABDE808404620FEF73CBA30380240CB
:1034D00010B502F03DF8044A0021044802F06AFEEB
:1034E0000349086010BD0000108300082D43000848
:1034F000000000202DE9F04F87B014216846FCF74A
:1035000019FF76480024016841F01001016001684C
:1035100001F010010591016841F08001016001682E
:1035200001F080010591016841F00401016001682A
:1035300001F004010591016841F001010160016899
:1035400001F001010591016841F00201016001688B
:1035500001F002010591016841F008010160006875
:10356000DFF87CB100F00800059000224CF2104119
:103570005846FEF726F800224FF442715948FEF7EC
:1035800020F8002241F608115748FEF71AF84FF4C8
:103590007049002249465548FEF713F84FF6067A5F
:1035A000002251465248FEF70CF80122D1034E4842
:1035B000FEF707F84C204FF48816CDE9000669465F
:1035C00002945846FDF700FF10274FF0020801252E
:1035D000CDF80C800097CDE9015469465846FDF7B7
:1035E000F3FE0820CDE90005CDE9024869463D48D3
:1035F000FDF7EAFE48F20800CDE90005CDE90248F2
:1036000069463948FDF7E0FECDE900746946364861
:103610000294FDF7D9FE4FF444400090CDE90154E7
:10362000694658460394FDF7CFFECDF80090CDE9EA
:10363000015469462D480394FDF7C6FECDF800A05D
:10364000CDE9015469462A480394FDF7BDFE4FF4C5
:1036500040700090CDE90154694622480394FDF77B
:10366000B3FE4FF4C8500090CDE9015469461E489E
:103670000394FDF7A9FE0097CDE9016469461C4853
:10368000FDF7A2FE2020CDE9000669460294174806
:10369000FDF79AFE002205210820FEF761F90820B7
:1036A000FEF750F9002205210920FEF759F90920FB
:1036B000FEF748F9002205210A20FEF751F90A20F9
:1036C000FEF740F9002205211720FEF749F91720DF
:1036D000FEF738F907B0BDE8F08F0000303802403F
:1036E00000100240000802400000024000040240B6
:1036F000000C02400D4810B50B4901600C494160B7
:1037000000214FF480428160C0E903124161816170
:10371000C1610162FDF760FF002803D0BDE81040E1
:10372000FDF73DBB10BD0000005400402801002003
:10373000A0860100094810B50749016000214160D9
:1037400040F6FF718160FEF73FF8002803D0BDE826
:103750001040FDF724BB10BD003000407C0100206C
:103760000F4810B50D4901604FF48271416000218E
:103770008160C1604FF400720161C0E90512C1614E
:103780000162416281620A21C162FEF7DDFB00280D
:1037900003D0BDE81040FDF702BB10BD003C004067
:1037A0008801002010B588B01C216846FCF7C2FDD6
:1037B00014481349002401604721C0E90114632122
:1037C000C0E903148461FEF71DFF08B1FDF7E7FAB5
:1037D0000C48FFF785F908B1FDF7E1FA6020CDE963
:1037E000000402940022694606480494FFF712F987
:1037F00008B1FDF7D4FA0348FFF720F808B010BD70
:10380000004401400003002010B592B000240F9442
:103810001C2108A81094FCF78DFD20216846FCF7B8
:1038200089FD20481E4901604721C0E90114632138
:10383000C0E9031444618461FFF752F908B1FDF750
:10384000AEFA0F940FA917481094FEF793FE08B133
:10385000FDF7A5FA6020CDE908040A940B940C94B6
:103860000D94002208A90F480E94FFF7D3F808B171
:10387000FDF795FA00944FF40050CDE9044002940E
:1038800001940394694607480794FEF748FE08B17F
:10389000FDF785FA0348FEF7D1FF12B010BD000016
:1038A00000000140E001002010B58AB00024079418
:1038B0001C2168460894FCF73DFD19484FF08041F3
:1038C00001604721C0E901146321C0E90314846148
:1038D000FFF706F908B1FDF762FA079407A9104847
:1038E0000894FEF747FE08B1FDF759FA6020CDE9CC
:1038F000000402940022694609480494FFF78AF8FC
:1039000008B1FDF74CFA042269460548FFF782F832
:1039100008B1FDF744FA0248FEF790FF0AB010BD67
:103920002802002010B58AB0002407941C216846A4
:103930000894FCF7FFFC1648144901604721C0E9D0
:1039400001146321C0E903148461FFF721F808B171
:10395000FDF725FA079407A90D480894FEF70AFE1B
:1039600008B1FDF71CFA5020CDE9000402940C22A6
:10397000694607480494FEF7E1FF08B1FDF70FFA26
:103980000348FEF75BFF0AB010BD000000040040D2
:103990007002002010B588B01C216846FCF7CAFCF4
:1039A000114810490024C0E900144FF6FF71C0E926
:1039B000024104618461FFF793F808B1FDF7EFF964
:1039C0006020CDE900040294002269460648049470
:1039D000FFF720F808B1FDF7E2F90348FEF72EFFE4
:1039E00008B010BD00400140B80200200C4810B5DE
:1039F0000A4901604FF4E1314160002181600C22ED
:103A0000C160C0E904128161C161FFF7E3FA0028D7
:103A100003D0BDE81040FDF7C2B910BD0010014051
:103A2000480300200C4810B50A4901604FF4E13109
:103A30004160002181600C22C160C0E904128161F3
:103A4000C161FFF7C7FA002803D0BDE81040FDF7B9
:103A5000A6B910BD00480040900300200C4810B5E6
:103A60000A4901604FF4E1314160002181600C227C
:103A7000C160C0E904128161C161FFF7ABFA00289F
:103A800003D0BDE81040FDF78AB910BD0014014015
:103A9000D8030020094A10B5527D0AB1042300E082
:103AA000032300229C1AE400083C20FA04F48C54FE
:103AB000521CD2B29A42F5D3012010BD085B0020FF
:103AC00070B504460E4600251822001DFCF70BFCBD
:103AD00001202070A078012804D13146204600F052
:103AE000BDF90546284670BD0C3080E80E00012067
:103AF0007047816082800120704710B51821FCF763
:103B000019FC012010BD01600120704770B5054609
:103B1000782003F041F904467821FCF70BFCA570EE
:103B2000204670BD2DE9F0470D4E0F460446002596
:103B300098469146691E706802F0BEFAA078012886
:103B400007D120694346C1194A46204600F006FACB
:103B50000546706802F00DFB2846BDE8F0870000BE
:103B6000C00000207FB50024012802D100F00AFA2D
:103B70000446084D287850B900200090019002902A
:103B80000390684602F0C1FA68600120287004B012
:103B9000204670BDC0000020FEE700002DE9F04780
:103BA0000D4E0F460446002598469146691E7068E2
:103BB00002F082FAA078012807D120694346C11992
:103BC0004A46204600F0E0F90546706802F0D1FA56
:103BD0002846BDE8F0870000C0000020FEE7000096
:103BE0002DE9F04FDFF8B4900D4606464119D9F89B
:103BF0000400C3B09B469046EA46814246D9052060
:103C000043B0BDE8F08F012000F00AF90028F7D199
:103C100002208DF800000AF101013046FFF73AFF5B
:103C200099F8150008B1052700E00427B6FBF8F164
:103C300008FB1160002840460ED0B6FBF0F108FBEF
:103C40001161A8EB0100A8420AD2B6FBF8F108FB0B
:103C50001161A8EB010404E0454501D9044600E0E8
:103C60002C462D1B26440AEB070022465946FCF73A
:103C70003AFB002339191A46684600F027FB070073
:103C800006D100F046FF070002D1A344002DBAD1AF
:103C9000002000F0C5F83846B2E70000085B0020BD
:103CA000F8B5044640684FF48273984221D1A06869
:103CB0004FF48065B0F5004F01D0A8420AD12068CA
:103CC000066826F0400606606068984211D1A06838
:103CD000A8420ED000920B4600228021204600F020
:103CE00043F8002804D0606D40F020006065032098
:103CF000F8BD00920B4600220121EFE7F8B515460A
:103D00000E460B46009204460122022100F02CF8D8
:103D1000A0B9134813490068B0FBF1F04FF47A7171
:103D2000484300906068B0F5827F0DD13346002291
:103D300080212046009500F017F870B1606D40F0CA
:103D4000200060650320F8BD009830B1401E00904F
:103D500020688068C0430006F6D50020F8BD00004A
:103D60001000002000366E012DE9F8431E469146F2
:103D700088460446089DFDF729FC401B351AFDF7CF
:103D800025FC074625480068C0F3CB30684338E07F
:103D9000701C37D0FDF71AFCC01BA84203D215B126
:103DA000009860B32CE02068416821F0E001416098
:103DB0006068B0F5827F0BD1A068B0F5004F02D0EB
:103DC000B0F5806F04D12068016821F040010160E6
:103DD000A06AB0F5005F09D12068016821F40051A4
:103DE00001602068016841F400510160012084F8FD
:103DF0005100002084F850000320BDE8F88300251E
:103E0000401E00902068816838EA010004D000213B
:103E10004945BDD10020F0E70121F9E7100000205D
:103E20001CB5040001D0062000E004208DF800003D
:103E300000231A460121684600F048FA00280BD1F9
:103E400001A800F005FA002806D1002C04D09DF846
:103E50000410890700D402201CBD0000F0B5044600
:103E600087B00D461822001DFCF73DFA012626708A
:103E70002868E0614FF482700025C4E9080502203B
:103E80002663C4E90A500002C4E90D05E5630A206F
:103E90002564C4E9115004F11C000746FEF754F8EC
:103EA0006767DFF8ACC0E168B2022A48A1EB0C03F7
:103EB000614533D00DDC284BC91827D091420DD174
:103EC000016841F002010160006800F00200059005
:103ED00004E093422AD0B3F5006F2FD0218901224C
:103EE000E068FDF76EFB2089CDE900060395694681
:103EF000E068FDF769FA22893846E16800F084F845
:103F000000F0FEF810B3002007B0F0BD016841F0EA
:103F100001010160006800F00100D8E7016841F08C
:103F200004010160006800F00400D0E7016841F07E
:103F300008010160006800F00800C8E7016841F06E
:103F400010010160006800F01000C0E70120DBE70D
:103F500000080240303802400000FEBF70B50C4639
:103F6000014615461A460B692046834203D8496923
:103F700043198B4201D9002070BD294600F0B0F8EA
:103F8000012070BD0120704770B50C4601691546CF
:103F9000A14203D840696119814201D9002070BD56
:103FA0001A462946204600F02DF9012070BD000078
:103FB00038B50120FFF734FF002822D1C7208DF843
:103FC00000001048007A00070CD594208DF80100FD
:103FD00080208DF802009A2000238DF803001A46F5
:103FE000042102E000231A460121684600F06EF920
:103FF000040002D100F08DFD04460020FFF710FF01
:10400000204638BD085B0020044BC3E90001044989
:104010001A8101200870002070470000FC5A00201F
:10402000C80000202DE9FC412C4E0D4604464119E4
:104030007068814202D90520BDE8FC81F4BBA8422A
:1040400044D1FFF7B5FFF7E7377C0120D6F80C80A5
:10405000FFF7E6FE0028EFD18DF8007020460DF145
:104060000101FFF717FD707D08B1052100E0042173
:1040700000231A46684600F029F9070028D100F00D
:1040800048FD070024D1B4FBF8F108FB1140C0B192
:10409000B4FBF8F108FB1141A8EB0100A84217D2CC
:1040A000B4FBF8F108FB1141A8EB0100B4FBF8F1F7
:1040B00008FB11412D1AA8EB010000E006E00444C2
:1040C00004E0454504D9A5EB08054444002DBBD1C7
:1040D0000020FFF7A5FE3846AEE70000085B002091
:1040E00070B514460D460646FFF79CFF002806D122
:1040F000224629463046BDE8704000F0B5B870BD94
:104100002DE9FC413C48007870B166208DF8000034
:1041100099208DF8010000231A460221684600F01C
:10412000D5F8040006D102E00620BDE8FC8100F0CD
:10413000F0FC0446002CF8D19F208DF804000323E6
:104140006A46012101A800F0C1F80028EDD12B4DED
:104150009DF800302A492B709DF801606E709DF823
:104160000270AF7000EB800211F822C09C4516D19E
:1041700001EB820292F801C0B44510D192F802C05E
:10418000BC450CD100EB800001EB8000406868600A
:1041900010892881D068E860107C287402E0401CF7
:1041A0000E28DFD3287A400705D50021012000F032
:1041B0006FF80400B9D16868B0F1807F15D9012685
:1041C0003046FFF72DFE040011D1B7208DF8000016
:1041D00000231A460121684600F078F8040000D157
:1041E0006E750020FFF71CFE01E0002068750120BD
:1041F0002875204699E70000C8000020085B0020D1
:104200006C8300082DE9FC41104D0C460646696898
:1042100020441746884202D90520BDE8FC8100F001
:1042200078FC0028F9D103208DF8000030460DF10C
:104230000101FFF72FFC687D08B1052100E0042192
:1042400023463A46684600F041F8E6E7085B00205E
:1042500008B505218DF8001001230246194668466D
:1042600000F034F808BD0000084B30B41C89E307A7
:1042700005D0134630BC4FF48072FFF7B1BC630722
:1042800002D530BCFCF792BC30BC7047085B002004
:1042900038B50C4648B150208DF8000000231A466E
:1042A0000121684600F012F802E00120FFF7B8FD96
:1042B00000280AD101208DF8000000238DF801406C
:1042C0001A460221684600F001F838BD2DE9F04792
:1042D000154C91460F4606461D462189002260680E
:1042E000FDF76FF94FF47A7837B1BAB243463146E9
:1042F0002068FDF767FF38B975B1AAB24346494651
:104300002068FDF7B5FE38B1218901226068FDF70C
:1043100058F90420BDE8F087218901226068FDF783
:1043200050F90020F6E70000FC5A0020012001F0BF
:1043300087FEFBE710B54FF0E020006903F0F6FDC3
:10434000012803D0BDE8104003F0ECB910BD000017
:1043500030B593B030216846FBF7ECFF14210CA870
:10436000FBF7E8FF1E480024016841F0805101601E
:10437000006800F0805011901A48016841F48041B3
:1043800001600068102100F4804011900A20009024
:104390000120CDE903010225CDE905050820CDE97D
:1043A0000740A820CDE9090504200B906846FDF7D9
:1043B00015FC08B172B6FEE70F20CDE90C054FF4ED
:1043C000A050CDE90E404FF48050109005210CA86C
:1043D000FDF7F8FA002801D072B6FEE713B030BD41
:1043E00040380240007000400248016841F470010A
:1043F0000160704788ED00E00148FEF786B90000D3
:1044000060060020F0B50268294C2A4D2A4E2B4F39
:104410002B4B4FF0804CA04209D0604507D0A842FA
:1044200005D0B04203D0B84201D0984204D122F066
:10443000700E4A6842EA0E02A0421BD0604519D0B5
:10444000A84217D0B04215D0B84213D0984211D02C
:104450001C4DA8420ED01C4DA8420BD01B4DA842AB
:1044600008D01B4DA84205D01A4DA84202D01A4DC3
:10447000A84203D122F44075CA682A434D6922F04C
:1044800080022A4302608A68C2620A688262A0428D
:1044900001D0984201D1096901630121416101699B
:1044A000C90703D0016921F001010161F0BD0000DD
:1044B000000001400004004000080040000C0040E3
:1044C0000004014000400140004401400048014018
:1044D00000180040001C00400020004010B501F012
:1044E0001F030121046A99408C430462016A9A40C7
:1044F0001143016210BD0000F0B5036A026A22F0A8
:104500000102026242688469124E24F073050C684D
:104510002C4323F002058B682B430D4DA84201D09C
:10452000B04205D123F00807CB683B4323F00403D6
:10453000A84201D0B04205D14D6922F44072154322
:104540008A692A4342608461496841630362F0BD1D
:104550000000014000040140F0B5026A036A23F044
:1045600010030362436884690D6824F4E64444EA56
:1045700005248D6822F0200242EA05120F4D104EEC
:10458000A84201D0B04206D1CF6822F0800242EAB0
:10459000071222F04002A84201D0B04207D14D6973
:1045A00023F4406343EA85038D6943EA850343604E
:1045B0008461496881630262F0BD0000000001402F
:1045C00000040140F0B5026A036A23F480730362B9
:1045D0004368C46922F4007224F073050C68124E1B
:1045E0002C438D6842EA05220E4DA84201D0B0420C
:1045F00006D1CF6822F4006242EA072222F48062E8
:10460000A84201D0B04207D14D6923F4405343EA98
:1046100005138D6943EA05134360C4614968C163AA
:104620000262F0BD000001400004014030B5046AA0
:10463000026A22F4805202624268C3690D6823F460
:10464000E64343EA05238D6824F4005444EA053424
:10465000084DA84202D0084DA84204D14D6922F469
:10466000804242EA85124260C36149680164046283
:1046700030BD0000000001400004014010B5806B17
:104680000021C185C184FEF76BFB10BD70B5846B42
:104690002068406994F84110C0F3C010002521291A
:1046A00004D118B1E584204600F08EF820684069F6
:1046B00094F84210C0F38010222904D118B1E58586
:1046C000204600F05AF8606C40F01000606420460C
:1046D000FEF746FB70BD10B50146806B096809689E
:1046E0004FF00002C9052ED4C28501680C3151E893
:1046F000003F23F4807341E80034002CF5D10168B9
:10470000143151E8003F23F0010341E80034002C4C
:10471000F5D10168143151E8003F23F0400341E82E
:104720000034002CF5D1202180F84210016B0129C2
:1047300009D101680C3151E8003F23F0100341E832
:104740000034002CF5D14263016B012902D0FEF741
:10475000C7FD10BD818DFEF7D7FA10BD10B5806B77
:1047600001214163016B012902D0FEF7E5FD10BD77
:10477000818D4908FEF7C8FA10BD01680C3151E877
:10478000002F22F4907241E80023002BF5D101683C
:10479000143151E8002F22F0010241E80023002BE0
:1047A000F5D1016B012909D101680C3151E8002FC5
:1047B00022F0100241E80023002BF5D1202180F8DF
:1047C000421000210163704701680C3151E8002F4D
:1047D00022F0C00241E80023002BF5D1202180F80F
:1047E0004110704708B590F84210222901D00220EC
:1047F00008BD82684FF480539A4201D1016921B10A
:10480000816A9A421BD04AB10AE00268816A526802
:10481000C2F308020A80816A891C08E0026972B149
:104820000268526802F07F020A70816A491C816244
:10483000C18D491E0904090CC18503D01BE0026823
:104840005268F1E70168CA6822F02002CA60016874
:10485000CA6822F48072CA6001684A6922F00102C3
:104860004A61202180F8421000214163026B012A35
:1048700003D0FEF735FD002008BD016301680C314F
:1048800051E8002F22F0100241E80023002BF5D15F
:1048900001680A68D20602D50A6849680091818DCC
:1048A000FEF732FAE7E7000070B5044600680169D8
:1048B000E26821F44051114301612169A068E26975
:1048C00008436169114308432168CA6849F20C63CF
:1048D0009A430243CA6020684169A26921F4407189
:1048E0001143416131492068884202D030498842F1
:1048F00002D1FDF731F901E0FDF71EF9E26900236D
:10490000192164253226B2F5004F626828D0A0FB39
:104910000101930F9200FBF7B5FC0146B0FBF5F0E7
:104920006FF01802504301EB800006EB0010B0FB63
:10493000F5F000F0F002B1FBF5F002EB0012B1FB74
:10494000F5F06FF01803584301EB800006EB001000
:10495000B0FBF5F000F00F0021681044886070BDD6
:10496000A0FB010192185B41FBF78CFC0146B0FBF8
:10497000F5F00201B1FBF5F06FF01803584301EBBD
:10498000800006EBC000B0FBF5F000F0F80002EB91
:104990004002B1FBF5F0584301EB800006EBC0008C
:1049A000B0FBF5F000F00700D6E700000010014072
:1049B0000014014038B58162044682850020134608
:1049C0006064222284F84220E56B1B4AEA63E56BAF
:1049D0001A4A2A64E56B1A4AEA64E26B10650A46D1
:1049E0002168E06B091DFCF773FC206801684068D2
:1049F0000090206948B120680C3050E8001F41F455
:104A0000807140E80012002AF5D12068143050E887
:104A1000001F41F0010140E80012002AF5D1206892
:104A2000143050E8001F41F0400140E80012002A15
:104A3000F5D1002038BD0000D74600085D470008CA
:104A40008D46000881628285C28500214164222151
:104A500080F84210016921B10168CA6842F480728D
:104A6000CA6001684A6942F001024A610068C1688F
:104A700041F02001C160002070472DE9F8439846BD
:104A800017460D460446089E24E0701C22D0FCF711
:104A90009DFDA0EB0800B0421AD8CEB12068C168D5
:104AA000490717D5802D15D0402D13D00168C94373
:104AB00009070FD401680025406800902046FFF7E1
:104AC0005CFE0820606484F840500120BDE8F88353
:104AD0000320FBE72068006835EA000004D00020CE
:104AE000B842D2D00020F1E70120F9E70148FEF7F3
:104AF00039B90000480300200148FEF733B900002F
:104B0000900300200148FEF72DB90000D8030020D3
:104B1000FEE738B54FF47A746846FFF799FB9DF8C5
:104B2000001001F00101014305D00120FCF708FC51
:104B3000641EF1D101E0002C00D1042038BD00003A
:104B400037B514460846064B6A46214600F0F0F891
:104B500004466946002000F06EFC20463EBD000081
:104B6000375400080907090E002804DB00F1E02093
:104B700080F80014704700F00F0000F1E02080F88A
:104B8000141D704700487047DC00002002E008C890
:104B9000121F08C1002AFAD170477047002001E0B7
:104BA00001C1121F002AFBD1704700002DE9FF5FF1
:104BB00082B00021DDE90430020DDDF840B003438E
:104BC00018D044F61050A2F2FF3242431514119847
:104BD00001281FD0A5EB0B00401C5FEA000A4FF034
:104BE00000064E4FDFF83891B046504615D5CAF151
:104BF000000413E0119801244AA3012801D16FEAAF
:104C00000B010298119AC0E90031C0E9024206B0D6
:104C1000BDE8F09FCBF10000DFE704460021404AE9
:104C2000491842EB0450CDE9001012E0E00707D02C
:104C300032463B4640464946FBF7FBFD80468946E7
:104C400032463B4610461946FBF7F3FD06460F4633
:104C50006410002CEAD1DDE90401DDE90023BAF19A
:104C6000000F06DAFBF7E5FD42464B46FBF7E1FD98
:104C700005E0FBF7D2FB42464B46FBF7CEFB044672
:104C80000E460022284BFBF75FFE03D84FF0FF30A3
:104C9000014607E00022254B20463146FBF722FD66
:104CA000FBF739FE102409E0002C0ADB0A2200235E
:104CB000FBF7E8FA039B30321A55641E50EA0102F2
:104CC000F2D1641C039AC4F111031444119A012A0D
:104CD00003D0012208430DD10AE0084304D000208C
:104CE0004FF0110B119072E7A3EB0B056D1E0DE059
:104CF0005B4504DD4FF0000205F1010504E003DA35
:104D00004FF00002A5F10105002AECD0029811999C
:104D1000C0E90231C0E9004579E700000000144015
:104D20000000F03F300000000000F0430000E03FD2
:104D30002DE9FF4F95B09A46884606460025EEE1DC
:104D4000252877D100242746F94A0121039400E061
:104D5000044316F8013F203B01FA03F01042F7D15B
:104D600030782A2811D06FF02F033078A0F130026C
:104D7000092A16D8039A44F0020402EB820203EBDC
:104D800042021044761C0390EFE758F8042B03927C
:104D9000002A03DA504244F40054039044F0020421
:104DA000761C30782E2816D116F8010F44F0040432
:104DB0002A280DD06FF02F023078A0F13003092B94
:104DC00009D807EB870302EB4303C718761CF3E708
:104DD00058F8047B761C30786C280FD006DC4C2801
:104DE00017D068280DD06A2814D104E0742810D098
:104DF0007A280FD10DE044F400140AE044F4801442
:104E000001E044F440147278824202D104F5801427
:104E1000761C761C307866280BD013DC582877D0A7
:104E200009DC002875D04528F6D04628F4D047285C
:104E30001AD193E118E0632835D0642879D0652829
:104E400012D18BE1702873D008DC6728F1D0692873
:104E50006FD06E280DD06F2806D1ACE073282CD00F
:104E6000752874D0782853D05246179990476D1CF6
:104E700054E1C4F30250022809D003280DD0D8F819
:104E8000001004280DD00D6008F1040846E1D8F8A0
:104E90000010EA17C1E90052F6E7D8F800100D80BB
:104EA000F2E70D70F0E718F8041B8DF800100020F1
:104EB0008DF80100EB46012003E058F804BB4FF0E9
:104EC000FF3061074FF0000102D40DE009F101014C
:104ED0008946B9420FDA8145F8DB1BF80910002931
:104EE000F4D108E009F1010189468142FADB1BF89F
:104EF00009100029F6D103985346A0EB0907214673
:104F00003846179A00F080FA284400EB090507E0BC
:104F100044E008E10DE01BF8010B52461799904759
:104F2000B9F10109F7D2534621463846179AF2E003
:104F300039E00A21C4F302524FF0000B0091022A1B
:104F400006D058F8040BC117032A09D00AE023E061
:104F500008F1070020F00702F2E80201904605E0A0
:104F600000B2C117042A01D140B2C117002906DAE4
:104F70000A460021404261EB02012D2202E0220597
:104F800004D52B228DF80420012203E0E20701D092
:104F90002022F7E7914657E00A2100E010214FF068
:104FA000000B00910BE010214FF0000B44F00404C3
:104FB0000827009103E008204FF0000B0090C4F395
:104FC0000252022A05D058F8040B0021032A08D007
:104FD00008E008F1070020F00702F2E8020190461D
:104FE00003E080B2042A00D1C0B24FF000092207CA
:104FF0002AD53278702A07D0DDF800C08CF0100C6A
:105000005CEA0B0C05D00EE040228DF80420012252
:1050100008E050EA010306D030238DF804308DF803
:10502000052002229146009B83F0080353EA0B03FC
:105030000AD150EA010201D1620705D530228DF86C
:1050400004204FF001097F1E3278582A04D039A27B
:105050000C920CAA02920BE03BA2F9E75B46009A85
:10506000FBF710F90C9B9B5C029A521E0292137084
:1050700050EA0102F2D1029804A9081A00F1200BAB
:10508000600702D524F4803400E001275F4502DD8B
:10509000A7EB0B0000E0002000EB0B010090039851
:1050A0004944401A0390E00306D453462146179A18
:1050B000039800F0A9F90544002706E001A852462C
:1050C000C05D179990476D1C7F1C4F45F6DBE003D0
:1050D0000CD553462146179A039800F095F90544DC
:1050E00004E030205246179990476D1C0099481EE5
:1050F00000900029F5DC08E00298029952460078F9
:10510000491C0291179990476D1CBBF10001ABF14E
:10511000010BF1DC5BE100F065F90544761C3078A9
:1051200000287FF40DAE19B02846BDE8F08F0000CE
:10513000092801003031323334353637383961626D
:105140006364656600000000303132333435363731
:10515000383941424344454600000000600700D40E
:10516000062708F1070020F00700F0E80223804638
:1051700003F0004C5FEA0C0001D097A009E0200585
:1051800001D596A005E0E00701D095A001E0AFF2BF
:105190004C001390307823F0004365280CD006DCD7
:1051A000452809D046281DD047287FD13BE06628F6
:1051B00018D067287AD136E00021112F01DB1120A9
:1051C00000E0781CCDE9000104A90CA8FFF7EEFC73
:1051D000DDE90D010C9A4FF0000B07F10109109267
:1051E00000914EE04FF000400097CDE9011004A976
:1051F0000CA8FFF7DBFCDDE90D020C9B0F994FF0CB
:10520000000B91461093009211B9791C00EB010933
:10521000B7EB090003D4C0F1FF3B07F10109A9EB8B
:105220000700019042E0012F00DA01270021112F31
:1052300001DD112000E03846CDE9000104A90CA8E9
:10524000FFF7B4FCDDE90D010C9A00914FF0000B63
:10525000B946109221070FD4009A4A4503DA9146C5
:1052600001E0A9F10109B9F1010F05DD109AA9F1D9
:105270000101515C3029F4D0B84202DA10F1040F78
:1052800003DA0121CDE9011010E0002803DC83449A
:10529000A9EB000102E0411C494500DD8946A0EB75
:1052A0000B00401C01904FF000400290200705D4F5
:1052B0000198484502DB4FF0FF30019000208DF847
:1052C0004B0002980DF14B07B0F1004F25D00220A2
:1052D0000C902B200D90029800280CDA404202908E
:1052E0002D200D9007E00A210298FBF731F93031AB
:1052F000029007F8011D0C99481E0C900029F2DC61
:1053000002980028EFD1791E0D980870307800F0CF
:10531000200040F0450007F8020D11A8C01BC01D79
:1053200002901398007800B1012000EB0901019868
:1053300001EBE071029801440398401A401E03906B
:10534000E00306D453462146179A039800F05CF810
:1053500005441398007818B15246179990476D1C70
:10536000E00323D553462146179A039800F04CF8E2
:1053700005441BE0BBF1000F07DB0098584504DD36
:105380001098179910F80B0001E017993020524639
:10539000904701980BF1010B401E05F101050190AA
:1053A00004D12E205246179990476D1CB9F1000187
:1053B000A9F10109DEDC05E017F8010B5246179947
:1053C00090476D1C0299481E02900029F4DC534658
:1053D0002146179A03989EE62D0000002B0000003E
:1053E000200000002DE9F041044600251E46174626
:1053F000880404D405E039462020B0476D1C641EA3
:10540000F9D52846BDE8F0812DE9F0410446002594
:105410001E469046C80301D5302700E020278804A7
:1054200004D505E041463846B0476D1C641EF9D5E9
:105430002846BDE8F0810A68531C0B601070704765
:1054400010B5014600230722382000F0B9FC0120E6
:1054500010BD00002DE9FC4105460C460A2000F075
:10546000EFFD03223549382000F070FD642000F084
:10547000E7FD0020009001906846FFF7E1FF06215C
:10548000FF2200236E463127F05C42405FF00800A7
:105490005FEA026C02D587EA420200E05200401E39
:1054A000D2B210F0FF00F3D15B1CDBB28B42EBD326
:1054B0009DF8060090424FF000003DD1401CC0B264
:1054C0000728FBD39DF803009DF80410000440EA70
:1054D00001209DF80510DFED1A0A0843C0F3130000
:1054E00000EE100ADFED171AB8EE400A20EE201A7F
:1054F0009FED150A11EE210ABDEEC00A85ED000AE6
:105500009DF801009DF80210000440EA01209DF87A
:1055100003100843000900EE100AB8EE400A20EE1E
:10552000200ADFED0A0A20EE200ABCEEC00A10EEC7
:10553000100AC0B220800120BDE8FC81C900002013
:105540000000803500004843000048420000C84287
:1055500010B541F2883002F063F800F0A5FB08486E
:1055600000F0AEFB012000F099FB0021044800F0A0
:10557000A3F900F039FDBDE8104001F0C9BC0000FE
:10558000480300207047000010B54FF480710448B4
:10559000FAF7D0FE03480021C160016110BD000090
:1055A000FC4F0020A400002000B50221024800F0BA
:1055B000F1F8012000BD0000548300082DE9F043FC
:1055C00091B00F46044600F047FADFF860810028EA
:1055D00041D1574E81460A2F54D004DC082F1AD0EF
:1055E000092F04D13EE00D2F4CD07F2F13D0D8F8D7
:1055F0000C004546FF2874D8296981427FD2421A9F
:105600003144481CFAF76FFE28693118375449A015
:10561000A0472E696FE0D8F810004546002878D0E2
:10562000E968401E491EC5E90310814214D90A1ACF
:105630003044411CFAF757FEE96806F801902869E2
:1056400031183DA0A0472E6902E03DA0A047761C7E
:10565000E8688642F9D95CE03AA0A047E96806F814
:10566000019056E098F801004546092808D000232B
:105670002E4A2F490C32204600F098FAE86847E09D
:105680000123F5E72A48C8F81490FAF76AFE68B1D2
:105690002DA0A04701F010FC254800252BA1FAF70A
:1056A0008DFE00906E465DF825000AE0FFF76CFF66
:1056B00027A036E025A10020FAF780FE6D1C46F8F1
:1056C00025000028F6D1009800F098F958B18368B9
:1056D0006A46294620469847FFF756FF1CA0A04778
:1056E00017E01BE00BE01CA0224600999047F3E76F
:1056F00013A0A047761CE8688642F9D303E037542C
:1057000039461BA0A047E868401CE8602869401C97
:10571000286188F8017011B0BDE8F083FFF734FF0D
:1057200014A011B0A446BDE8F0436047A4000020D7
:10573000FC4F00202573000008257320200800007E
:1057400008000000082008000D0A000020000000EA
:105750000D0A3E2000000000556E6B6E6F776E20C4
:10576000636F6D6D616E643A2025730A000000005E
:10577000256300000D0A074552523A20436F6D6DB4
:10578000616E6420746F6F206C6F6E670D0A3E202F
:105790000000000010B5084CA268102A01D30020B8
:1057A00010BD064B43F8320003EBC200521C4160AF
:1057B0000120A26010BD0000A40000207C4F00204A
:1057C0001CB5044600200090ADF80400012902D069
:1057D00007A0A0471CBD01A96846FFF73BFE0BA030
:1057E0000099A047BDF804100DA0A0471CBD000003
:1057F000706172616D65746572206C656E67746846
:10580000206572726F720D0A0000000074656D7081
:1058100065726174757265203D2025640D0A000073
:1058200068756D6964697479202020203D202564A5
:105830000D0A000070B515460446022904DAA44694
:10584000BDE8704008A06047686800F0D7F838B13C
:105850004168002907D00FA0A446BDE8704060470A
:105860000DA06968F8E770BD4572726F723A204EFC
:105870006F2066756E6374696F6E207370656369FF
:1058800066696564202874727920606C697374603D
:10589000290A000025730A004572726F722C20637A
:1058A0006F6D6D616E642060257360206E6F742073
:1058B000666F756E640A00007CB50C46064600F003
:1058C00068FBFFF771FE14481449401A0C21B0FB25
:1058D000F1F11248FFF75EFF114D304605F1080166
:1058E0006E6085F8884014B1012C04D006E0802257
:1058F000FDF7BBF902E08022FDF7DEF90020009001
:105900000190074B4FF4807206A1084802F0B0FAEC
:10591000012028707CBD000024860008E88500086E
:10592000205B002074436C6900000000616D00087A
:105930000148007870470000CC0000202DE9F047B6
:10594000064614A216A118A0B0471AA0B04700241A
:10595000DFF8A0804FF0040ADFF89C9014E00025E7
:1059600008EBC4070CE000BF58F8341005EB450005
:105970000AEB80028A5851F820100BA0B0476D1C2A
:105980007968A942F0D8641CD9F808008442E6D3AB
:10599000BDE8F0874465736372697074696F6E0067
:1059A000436F6D6D616E6400252D32307325730D6C
:1059B0000A0000002D2D2D2D2D2D2D2D2D2D2D2DC1
:1059C0002D2D2D2D2D2D2D2D2D2D2D2D2D2D2D2D07
:1059D0002D2D2D2D2D2D2D2D2D2D2D2D2D2D2D2DF7
:1059E0002D2D2D2D2D2D2D2D2D2D2D2D2D2D2D0D07
:1059F0000A0000007C4F0020A40000202DE9F047A1
:105A000081460024124EDFF84C8012E0002506EBA0
:105A1000C4070AE056F8340005EB450150F82110A0
:105A20004846FAF7A5FC58B16D1C7868A842F1D831
:105A3000641CD8F808008442E8D30020BDE8F08751
:105A400056F8340005EB450100EB8100F6E7000055
:105A50007C4F0020A40000202DE9F041484C064670
:105A60000D4600276068394630B1012809D0022868
:105A70000ED003287FD070E01B2D6ED10127384651
:105A800077E05B2D01D04F2D67D10127022070E018
:105A9000412D5CD3442D5AD8394861600127C16833
:105AA000DFF8E0804069412D08D0422D22D03448F3
:105AB000432D006941D0442D50D138E0A269904275
:105AC00052D220223048FAF72EFC2F492FA0B0479F
:105AD00061692D4808EB0121FAF758FC2A48FAF7CA
